{
  "_format": "hh-sol-artifact-1",
  "contractName": "TestLensApiConsumerContract",
  "sourceName": "contracts/TestLensApiConsumerContract.sol",
  "abi": [
    {
      "inputs": [
        {
          "internalType": "address",
          "name": "phatAttestor",
          "type": "address"
        }
      ],
      "stateMutability": "nonpayable",
      "type": "constructor"
    },
    {
      "inputs": [],
      "name": "BadAttestor",
      "type": "error"
    },
    {
      "inputs": [
        {
          "internalType": "uint256",
          "name": "kenLen",
          "type": "uint256"
        },
        {
          "internalType": "uint256",
          "name": "valueLen",
          "type": "uint256"
        }
      ],
      "name": "BadCondLen",
      "type": "error"
    },
    {
      "inputs": [
        {
          "internalType": "uint256",
          "name": "kenLen",
          "type": "uint256"
        },
        {
          "internalType": "uint256",
          "name": "valueLen",
          "type": "uint256"
        }
      ],
      "name": "BadUpdateLen",
      "type": "error"
    },
    {
      "inputs": [
        {
          "internalType": "uint8",
          "name": "actionId",
          "type": "uint8"
        }
      ],
      "name": "CannotDecodeAction",
      "type": "error"
    },
    {
      "inputs": [
        {
          "internalType": "bytes",
          "name": "cond",
          "type": "bytes"
        },
        {
          "internalType": "uint32",
          "name": "expected",
          "type": "uint32"
        },
        {
          "internalType": "uint32",
          "name": "actual",
          "type": "uint32"
        }
      ],
      "name": "CondNotMet",
      "type": "error"
    },
    {
      "inputs": [
        {
          "internalType": "bytes",
          "name": "data",
          "type": "bytes"
        }
      ],
      "name": "Internal_toUint32Strict_outOfBounds",
      "type": "error"
    },
    {
      "inputs": [
        {
          "internalType": "uint256",
          "name": "targetIdx",
          "type": "uint256"
        },
        {
          "internalType": "uint256",
          "name": "tailIdx",
          "type": "uint256"
        }
      ],
      "name": "InvalidPopTarget",
      "type": "error"
    },
    {
      "inputs": [],
      "name": "InvalidShortString",
      "type": "error"
    },
    {
      "inputs": [],
      "name": "MetaTxSignatureNotMatch",
      "type": "error"
    },
    {
      "inputs": [
        {
          "internalType": "uint256",
          "name": "actual",
          "type": "uint256"
        },
        {
          "internalType": "uint256",
          "name": "currentNonce",
          "type": "uint256"
        }
      ],
      "name": "NonceTooLow",
      "type": "error"
    },
    {
      "inputs": [
        {
          "internalType": "string",
          "name": "str",
          "type": "string"
        }
      ],
      "name": "StringTooLong",
      "type": "error"
    },
    {
      "inputs": [
        {
          "internalType": "uint8",
          "name": "actionId",
          "type": "uint8"
        }
      ],
      "name": "UnsupportedAction",
      "type": "error"
    },
    {
      "anonymous": false,
      "inputs": [],
      "name": "EIP712DomainChanged",
      "type": "event"
    },
    {
      "anonymous": false,
      "inputs": [
        {
          "indexed": false,
          "internalType": "uint256",
          "name": "reqId",
          "type": "uint256"
        },
        {
          "components": [
            {
              "internalType": "address",
              "name": "requester",
              "type": "address"
            },
            {
              "internalType": "string",
              "name": "date",
              "type": "string"
            },
            {
              "internalType": "uint256",
              "name": "requestid",
              "type": "uint256"
            },
            {
              "internalType": "bool",
              "name": "malformed",
              "type": "bool"
            }
          ],
          "indexed": false,
          "internalType": "struct TestLensApiConsumerContract.RequestStruct",
          "name": "requestStruct",
          "type": "tuple"
        },
        {
          "indexed": false,
          "internalType": "string",
          "name": "departureCity",
          "type": "string"
        },
        {
          "indexed": false,
          "internalType": "string",
          "name": "arrivalCity",
          "type": "string"
        },
        {
          "indexed": false,
          "internalType": "string",
          "name": "airline",
          "type": "string"
        }
      ],
      "name": "ErrorReceived",
      "type": "event"
    },
    {
      "anonymous": false,
      "inputs": [
        {
          "indexed": false,
          "internalType": "uint256",
          "name": "",
          "type": "uint256"
        }
      ],
      "name": "MessageProcessedTo",
      "type": "event"
    },
    {
      "anonymous": false,
      "inputs": [
        {
          "indexed": false,
          "internalType": "uint256",
          "name": "idx",
          "type": "uint256"
        },
        {
          "indexed": false,
          "internalType": "bytes",
          "name": "data",
          "type": "bytes"
        }
      ],
      "name": "MessageQueued",
      "type": "event"
    },
    {
      "anonymous": false,
      "inputs": [],
      "name": "MetaTxDecoded",
      "type": "event"
    },
    {
      "anonymous": false,
      "inputs": [
        {
          "indexed": true,
          "internalType": "address",
          "name": "previousOwner",
          "type": "address"
        },
        {
          "indexed": true,
          "internalType": "address",
          "name": "newOwner",
          "type": "address"
        }
      ],
      "name": "OwnershipTransferred",
      "type": "event"
    },
    {
      "anonymous": false,
      "inputs": [
        {
          "indexed": false,
          "internalType": "uint256",
          "name": "reqId",
          "type": "uint256"
        },
        {
          "components": [
            {
              "internalType": "address",
              "name": "requester",
              "type": "address"
            },
            {
              "internalType": "string",
              "name": "date",
              "type": "string"
            },
            {
              "internalType": "uint256",
              "name": "requestid",
              "type": "uint256"
            },
            {
              "internalType": "bool",
              "name": "malformed",
              "type": "bool"
            }
          ],
          "indexed": false,
          "internalType": "struct TestLensApiConsumerContract.RequestStruct",
          "name": "requestStruct",
          "type": "tuple"
        },
        {
          "indexed": false,
          "internalType": "string",
          "name": "departureCity",
          "type": "string"
        },
        {
          "indexed": false,
          "internalType": "string",
          "name": "arrivalCity",
          "type": "string"
        },
        {
          "indexed": false,
          "internalType": "string",
          "name": "airline",
          "type": "string"
        }
      ],
      "name": "ResponseReceived",
      "type": "event"
    },
    {
      "anonymous": false,
      "inputs": [
        {
          "indexed": true,
          "internalType": "bytes32",
          "name": "role",
          "type": "bytes32"
        },
        {
          "indexed": true,
          "internalType": "bytes32",
          "name": "previousAdminRole",
          "type": "bytes32"
        },
        {
          "indexed": true,
          "internalType": "bytes32",
          "name": "newAdminRole",
          "type": "bytes32"
        }
      ],
      "name": "RoleAdminChanged",
      "type": "event"
    },
    {
      "anonymous": false,
      "inputs": [
        {
          "indexed": true,
          "internalType": "bytes32",
          "name": "role",
          "type": "bytes32"
        },
        {
          "indexed": true,
          "internalType": "address",
          "name": "account",
          "type": "address"
        },
        {
          "indexed": true,
          "internalType": "address",
          "name": "sender",
          "type": "address"
        }
      ],
      "name": "RoleGranted",
      "type": "event"
    },
    {
      "anonymous": false,
      "inputs": [
        {
          "indexed": true,
          "internalType": "bytes32",
          "name": "role",
          "type": "bytes32"
        },
        {
          "indexed": true,
          "internalType": "address",
          "name": "account",
          "type": "address"
        },
        {
          "indexed": true,
          "internalType": "address",
          "name": "sender",
          "type": "address"
        }
      ],
      "name": "RoleRevoked",
      "type": "event"
    },
    {
      "inputs": [],
      "name": "ATTESTOR_ROLE",
      "outputs": [
        {
          "internalType": "bytes32",
          "name": "",
          "type": "bytes32"
        }
      ],
      "stateMutability": "view",
      "type": "function"
    },
    {
      "inputs": [],
      "name": "DEFAULT_ADMIN_ROLE",
      "outputs": [
        {
          "internalType": "bytes32",
          "name": "",
          "type": "bytes32"
        }
      ],
      "stateMutability": "view",
      "type": "function"
    },
    {
      "inputs": [],
      "name": "eip712Domain",
      "outputs": [
        {
          "internalType": "bytes1",
          "name": "fields",
          "type": "bytes1"
        },
        {
          "internalType": "string",
          "name": "name",
          "type": "string"
        },
        {
          "internalType": "string",
          "name": "version",
          "type": "string"
        },
        {
          "internalType": "uint256",
          "name": "chainId",
          "type": "uint256"
        },
        {
          "internalType": "address",
          "name": "verifyingContract",
          "type": "address"
        },
        {
          "internalType": "bytes32",
          "name": "salt",
          "type": "bytes32"
        },
        {
          "internalType": "uint256[]",
          "name": "extensions",
          "type": "uint256[]"
        }
      ],
      "stateMutability": "view",
      "type": "function"
    },
    {
      "inputs": [],
      "name": "getCurrent",
      "outputs": [
        {
          "internalType": "bytes",
          "name": "",
          "type": "bytes"
        }
      ],
      "stateMutability": "view",
      "type": "function"
    },
    {
      "inputs": [],
      "name": "getHeadIndex",
      "outputs": [
        {
          "internalType": "uint32",
          "name": "",
          "type": "uint32"
        }
      ],
      "stateMutability": "view",
      "type": "function"
    },
    {
      "inputs": [],
      "name": "getHeadStorageKey",
      "outputs": [
        {
          "internalType": "bytes",
          "name": "",
          "type": "bytes"
        }
      ],
      "stateMutability": "view",
      "type": "function"
    },
    {
      "inputs": [
        {
          "internalType": "bytes32",
          "name": "role",
          "type": "bytes32"
        }
      ],
      "name": "getRoleAdmin",
      "outputs": [
        {
          "internalType": "bytes32",
          "name": "",
          "type": "bytes32"
        }
      ],
      "stateMutability": "view",
      "type": "function"
    },
    {
      "inputs": [
        {
          "internalType": "bytes",
          "name": "key",
          "type": "bytes"
        }
      ],
      "name": "getStorage",
      "outputs": [
        {
          "internalType": "bytes",
          "name": "",
          "type": "bytes"
        }
      ],
      "stateMutability": "view",
      "type": "function"
    },
    {
      "inputs": [],
      "name": "getTailIndex",
      "outputs": [
        {
          "internalType": "uint32",
          "name": "",
          "type": "uint32"
        }
      ],
      "stateMutability": "view",
      "type": "function"
    },
    {
      "inputs": [],
      "name": "getTailStorageKey",
      "outputs": [
        {
          "internalType": "bytes",
          "name": "",
          "type": "bytes"
        }
      ],
      "stateMutability": "view",
      "type": "function"
    },
    {
      "inputs": [
        {
          "internalType": "address",
          "name": "user",
          "type": "address"
        }
      ],
      "name": "getUserTokenIds",
      "outputs": [
        {
          "internalType": "uint256[]",
          "name": "",
          "type": "uint256[]"
        }
      ],
      "stateMutability": "view",
      "type": "function"
    },
    {
      "inputs": [
        {
          "internalType": "bytes32",
          "name": "role",
          "type": "bytes32"
        },
        {
          "internalType": "address",
          "name": "account",
          "type": "address"
        }
      ],
      "name": "grantRole",
      "outputs": [],
      "stateMutability": "nonpayable",
      "type": "function"
    },
    {
      "inputs": [
        {
          "internalType": "bytes32",
          "name": "role",
          "type": "bytes32"
        },
        {
          "internalType": "address",
          "name": "account",
          "type": "address"
        }
      ],
      "name": "hasRole",
      "outputs": [
        {
          "internalType": "bool",
          "name": "",
          "type": "bool"
        }
      ],
      "stateMutability": "view",
      "type": "function"
    },
    {
      "inputs": [
        {
          "internalType": "bytes",
          "name": "malformedData",
          "type": "bytes"
        }
      ],
      "name": "malformedRequest",
      "outputs": [],
      "stateMutability": "nonpayable",
      "type": "function"
    },
    {
      "inputs": [
        {
          "internalType": "address",
          "name": "from",
          "type": "address"
        }
      ],
      "name": "metaTxGetNonce",
      "outputs": [
        {
          "internalType": "uint256",
          "name": "",
          "type": "uint256"
        }
      ],
      "stateMutability": "view",
      "type": "function"
    },
    {
      "inputs": [
        {
          "internalType": "address",
          "name": "from",
          "type": "address"
        },
        {
          "internalType": "bytes",
          "name": "data",
          "type": "bytes"
        }
      ],
      "name": "metaTxPrepare",
      "outputs": [
        {
          "components": [
            {
              "internalType": "address",
              "name": "from",
              "type": "address"
            },
            {
              "internalType": "uint256",
              "name": "nonce",
              "type": "uint256"
            },
            {
              "internalType": "bytes",
              "name": "data",
              "type": "bytes"
            }
          ],
          "internalType": "struct MetaTxReceiver.ForwardRequest",
          "name": "",
          "type": "tuple"
        },
        {
          "internalType": "bytes32",
          "name": "",
          "type": "bytes32"
        }
      ],
      "stateMutability": "view",
      "type": "function"
    },
    {
      "inputs": [
        {
          "internalType": "address",
          "name": "from",
          "type": "address"
        },
        {
          "internalType": "bytes",
          "name": "data",
          "type": "bytes"
        },
        {
          "internalType": "uint256",
          "name": "nonce",
          "type": "uint256"
        }
      ],
      "name": "metaTxPrepareWithNonce",
      "outputs": [
        {
          "components": [
            {
              "internalType": "address",
              "name": "from",
              "type": "address"
            },
            {
              "internalType": "uint256",
              "name": "nonce",
              "type": "uint256"
            },
            {
              "internalType": "bytes",
              "name": "data",
              "type": "bytes"
            }
          ],
          "internalType": "struct MetaTxReceiver.ForwardRequest",
          "name": "",
          "type": "tuple"
        },
        {
          "internalType": "bytes32",
          "name": "",
          "type": "bytes32"
        }
      ],
      "stateMutability": "view",
      "type": "function"
    },
    {
      "inputs": [
        {
          "components": [
            {
              "internalType": "address",
              "name": "from",
              "type": "address"
            },
            {
              "internalType": "uint256",
              "name": "nonce",
              "type": "uint256"
            },
            {
              "internalType": "bytes",
              "name": "data",
              "type": "bytes"
            }
          ],
          "internalType": "struct MetaTxReceiver.ForwardRequest",
          "name": "req",
          "type": "tuple"
        },
        {
          "internalType": "bytes",
          "name": "signature",
          "type": "bytes"
        }
      ],
      "name": "metaTxRollupU256CondEq",
      "outputs": [
        {
          "internalType": "bool",
          "name": "",
          "type": "bool"
        }
      ],
      "stateMutability": "nonpayable",
      "type": "function"
    },
    {
      "inputs": [
        {
          "components": [
            {
              "internalType": "address",
              "name": "from",
              "type": "address"
            },
            {
              "internalType": "uint256",
              "name": "nonce",
              "type": "uint256"
            },
            {
              "internalType": "bytes",
              "name": "data",
              "type": "bytes"
            }
          ],
          "internalType": "struct MetaTxReceiver.ForwardRequest",
          "name": "req",
          "type": "tuple"
        },
        {
          "internalType": "bytes",
          "name": "signature",
          "type": "bytes"
        }
      ],
      "name": "metaTxVerify",
      "outputs": [
        {
          "internalType": "bool",
          "name": "",
          "type": "bool"
        }
      ],
      "stateMutability": "view",
      "type": "function"
    },
    {
      "inputs": [],
      "name": "owner",
      "outputs": [
        {
          "internalType": "address",
          "name": "",
          "type": "address"
        }
      ],
      "stateMutability": "view",
      "type": "function"
    },
    {
      "inputs": [
        {
          "internalType": "bytes",
          "name": "key",
          "type": "bytes"
        }
      ],
      "name": "queueGetBytes",
      "outputs": [
        {
          "internalType": "bytes",
          "name": "",
          "type": "bytes"
        }
      ],
      "stateMutability": "view",
      "type": "function"
    },
    {
      "inputs": [],
      "name": "queueGetPrefix",
      "outputs": [
        {
          "internalType": "bytes",
          "name": "",
          "type": "bytes"
        }
      ],
      "stateMutability": "pure",
      "type": "function"
    },
    {
      "inputs": [
        {
          "internalType": "bytes",
          "name": "key",
          "type": "bytes"
        }
      ],
      "name": "queueGetUint",
      "outputs": [
        {
          "internalType": "uint32",
          "name": "",
          "type": "uint32"
        }
      ],
      "stateMutability": "view",
      "type": "function"
    },
    {
      "inputs": [],
      "name": "renounceOwnership",
      "outputs": [],
      "stateMutability": "nonpayable",
      "type": "function"
    },
    {
      "inputs": [
        {
          "internalType": "bytes32",
          "name": "role",
          "type": "bytes32"
        },
        {
          "internalType": "address",
          "name": "account",
          "type": "address"
        }
      ],
      "name": "renounceRole",
      "outputs": [],
      "stateMutability": "nonpayable",
      "type": "function"
    },
    {
      "inputs": [
        {
          "internalType": "string",
          "name": "flightNumber",
          "type": "string"
        },
        {
          "internalType": "string",
          "name": "date",
          "type": "string"
        }
      ],
      "name": "request",
      "outputs": [],
      "stateMutability": "nonpayable",
      "type": "function"
    },
    {
      "inputs": [
        {
          "internalType": "bytes32",
          "name": "role",
          "type": "bytes32"
        },
        {
          "internalType": "address",
          "name": "account",
          "type": "address"
        }
      ],
      "name": "revokeRole",
      "outputs": [],
      "stateMutability": "nonpayable",
      "type": "function"
    },
    {
      "inputs": [
        {
          "internalType": "bytes[]",
          "name": "condKeys",
          "type": "bytes[]"
        },
        {
          "internalType": "bytes[]",
          "name": "condValues",
          "type": "bytes[]"
        },
        {
          "internalType": "bytes[]",
          "name": "updateKeys",
          "type": "bytes[]"
        },
        {
          "internalType": "bytes[]",
          "name": "updateValues",
          "type": "bytes[]"
        },
        {
          "internalType": "bytes[]",
          "name": "actions",
          "type": "bytes[]"
        }
      ],
      "name": "rollupU256CondEq",
      "outputs": [
        {
          "internalType": "bool",
          "name": "",
          "type": "bool"
        }
      ],
      "stateMutability": "nonpayable",
      "type": "function"
    },
    {
      "inputs": [
        {
          "internalType": "string",
          "name": "tokenURI",
          "type": "string"
        }
      ],
      "name": "saveDetails",
      "outputs": [
        {
          "internalType": "uint256",
          "name": "",
          "type": "uint256"
        }
      ],
      "stateMutability": "nonpayable",
      "type": "function"
    },
    {
      "inputs": [
        {
          "internalType": "address",
          "name": "phatAttestor",
          "type": "address"
        }
      ],
      "name": "setAttestor",
      "outputs": [],
      "stateMutability": "nonpayable",
      "type": "function"
    },
    {
      "inputs": [
        {
          "internalType": "bytes4",
          "name": "interfaceId",
          "type": "bytes4"
        }
      ],
      "name": "supportsInterface",
      "outputs": [
        {
          "internalType": "bool",
          "name": "",
          "type": "bool"
        }
      ],
      "stateMutability": "view",
      "type": "function"
    },
    {
      "inputs": [
        {
          "internalType": "bytes",
          "name": "_bytes",
          "type": "bytes"
        }
      ],
      "name": "toUint32Strict",
      "outputs": [
        {
          "internalType": "uint32",
          "name": "",
          "type": "uint32"
        }
      ],
      "stateMutability": "pure",
      "type": "function"
    },
    {
      "inputs": [
        {
          "internalType": "address",
          "name": "newOwner",
          "type": "address"
        }
      ],
      "name": "transferOwnership",
      "outputs": [],
      "stateMutability": "nonpayable",
      "type": "function"
    },
    {
      "inputs": [],
      "name": "travelNft",
      "outputs": [
        {
          "internalType": "contract TravelNFT",
          "name": "",
          "type": "address"
        }
      ],
      "stateMutability": "view",
      "type": "function"
    },
    {
      "inputs": [
        {
          "internalType": "address",
          "name": "",
          "type": "address"
        },
        {
          "internalType": "uint256",
          "name": "",
          "type": "uint256"
        }
      ],
      "name": "userToTokenId",
      "outputs": [
        {
          "internalType": "uint256",
          "name": "",
          "type": "uint256"
        }
      ],
      "stateMutability": "view",
      "type": "function"
    }
  ],
  "bytecode": "0x6101606040526001600a553480156200001757600080fd5b5060405162009cf538038062009cf583398181016040528101906200003d919062000604565b6040518060400160405280601881526020017f50686174526f6c6c75704d6574615478526563656976657200000000000000008152506040518060400160405280600581526020017f302e302e310000000000000000000000000000000000000000000000000000008152506001600081905550620000cc6001836200023060201b62001c851790919060201c565b6101208181525050620000ef6002826200023060201b62001c851790919060201c565b6101408181525050818051906020012060e08181525050808051906020012061010081815250504660a081815250506200012e6200028d60201b60201c565b608081815250503073ffffffffffffffffffffffffffffffffffffffff1660c08173ffffffffffffffffffffffffffffffffffffffff168152505050506200018b6200017f620002ea60201b60201c565b620002f260201b60201c565b620001bd7fa7e0cd0f2772b23ee4c329892293a6bd99d48c306b094d6d008c9a8bb8b731e482620003b860201b60201c565b604051620001cb906200058c565b604051809103906000f080158015620001e8573d6000803e3d6000fd5b50600760006101000a81548173ffffffffffffffffffffffffffffffffffffffff021916908373ffffffffffffffffffffffffffffffffffffffff1602179055505062000b86565b600060208351101562000256576200024e83620004aa60201b60201c565b905062000287565b826200026d836200051760201b62001cc91760201c565b60000190816200027e9190620008b0565b5060ff60001b90505b92915050565b60007f8b73c3c69bb8fe3d512ecc4cf759cc79239f7b179b0ffacaa9a75d522b39400f60e051610100514630604051602001620002cf959493929190620009d4565b60405160208183030381529060405280519060200120905090565b600033905090565b6000600660009054906101000a900473ffffffffffffffffffffffffffffffffffffffff16905081600660006101000a81548173ffffffffffffffffffffffffffffffffffffffff021916908373ffffffffffffffffffffffffffffffffffffffff1602179055508173ffffffffffffffffffffffffffffffffffffffff168173ffffffffffffffffffffffffffffffffffffffff167f8be0079c531659141344cd1fd0a4f28419497f9722a3daafe3b4186f6b6457e060405160405180910390a35050565b620003ca82826200052160201b60201c565b620004a65760016004600084815260200190815260200160002060000160008373ffffffffffffffffffffffffffffffffffffffff1673ffffffffffffffffffffffffffffffffffffffff16815260200190815260200160002060006101000a81548160ff0219169083151502179055506200044b620002ea60201b60201c565b73ffffffffffffffffffffffffffffffffffffffff168173ffffffffffffffffffffffffffffffffffffffff16837f2f8788117e7eff1d82e926ec794901d17c78024a50270940304540a733656f0d60405160405180910390a45b5050565b600080829050601f81511115620004fa57826040517f305a27a9000000000000000000000000000000000000000000000000000000008152600401620004f1919062000ac0565b60405180910390fd5b805181620005089062000b16565b60001c1760001b915050919050565b6000819050919050565b60006004600084815260200190815260200160002060000160008373ffffffffffffffffffffffffffffffffffffffff1673ffffffffffffffffffffffffffffffffffffffff16815260200190815260200160002060009054906101000a900460ff16905092915050565b61335180620069a483390190565b600080fd5b600073ffffffffffffffffffffffffffffffffffffffff82169050919050565b6000620005cc826200059f565b9050919050565b620005de81620005bf565b8114620005ea57600080fd5b50565b600081519050620005fe81620005d3565b92915050565b6000602082840312156200061d576200061c6200059a565b5b60006200062d84828501620005ed565b91505092915050565b600081519050919050565b7f4e487b7100000000000000000000000000000000000000000000000000000000600052604160045260246000fd5b7f4e487b7100000000000000000000000000000000000000000000000000000000600052602260045260246000fd5b60006002820490506001821680620006b857607f821691505b602082108103620006ce57620006cd62000670565b5b50919050565b60008190508160005260206000209050919050565b60006020601f8301049050919050565b600082821b905092915050565b600060088302620007387fffffffffffffffffffffffffffffffffffffffffffffffffffffffffffffffff82620006f9565b620007448683620006f9565b95508019841693508086168417925050509392505050565b6000819050919050565b6000819050919050565b6000620007916200078b62000785846200075c565b62000766565b6200075c565b9050919050565b6000819050919050565b620007ad8362000770565b620007c5620007bc8262000798565b84845462000706565b825550505050565b600090565b620007dc620007cd565b620007e9818484620007a2565b505050565b5b81811015620008115762000805600082620007d2565b600181019050620007ef565b5050565b601f82111562000860576200082a81620006d4565b6200083584620006e9565b8101602085101562000845578190505b6200085d6200085485620006e9565b830182620007ee565b50505b505050565b600082821c905092915050565b6000620008856000198460080262000865565b1980831691505092915050565b6000620008a0838362000872565b9150826002028217905092915050565b620008bb8262000636565b67ffffffffffffffff811115620008d757620008d662000641565b5b620008e382546200069f565b620008f082828562000815565b600060209050601f83116001811462000928576000841562000913578287015190505b6200091f858262000892565b8655506200098f565b601f1984166200093886620006d4565b60005b8281101562000962578489015182556001820191506020850194506020810190506200093b565b868310156200098257848901516200097e601f89168262000872565b8355505b6001600288020188555050505b505050505050565b6000819050919050565b620009ac8162000997565b82525050565b620009bd816200075c565b82525050565b620009ce81620005bf565b82525050565b600060a082019050620009eb6000830188620009a1565b620009fa6020830187620009a1565b62000a096040830186620009a1565b62000a186060830185620009b2565b62000a276080830184620009c3565b9695505050505050565b600082825260208201905092915050565b60005b8381101562000a6257808201518184015260208101905062000a45565b60008484015250505050565b6000601f19601f8301169050919050565b600062000a8c8262000636565b62000a98818562000a31565b935062000aaa81856020860162000a42565b62000ab58162000a6e565b840191505092915050565b6000602082019050818103600083015262000adc818462000a7f565b905092915050565b600081519050919050565b6000819050602082019050919050565b600062000b0d825162000997565b80915050919050565b600062000b238262000ae4565b8262000b2f8462000aef565b905062000b3c8162000aff565b9250602082101562000b7f5762000b7a7fffffffffffffffffffffffffffffffffffffffffffffffffffffffffffffffff83602003600802620006f9565b831692505b5050919050565b60805160a05160c05160e051610100516101205161014051615dc362000be16000396000610e0701526000610dd301526000612e4901526000612e280152600061278b015260006127e10152600061280a0152615dc36000f3fe608060405234801561001057600080fd5b50600436106102115760003560e01c806392ddf23c11610125578063caa0ff21116100ad578063d7f599721161007c578063d7f5997214610694578063da8294ba146106b0578063f2fde38b146106ce578063f4034a96146106ea578063f5770b1f1461071a57610211565b8063caa0ff21146105e8578063ce734b1014610618578063d547741f14610648578063d6cb020d1461066457610211565b8063a51831a8116100f4578063a51831a81461051c578063a73644131461054c578063ad0bc4641461056a578063af7620381461059a578063bbbfe446146105b857610211565b806392ddf23c146104805780639b1d9692146104b05780639df73368146104e0578063a217fddf146104fe57610211565b80635232f0d7116101a8578063843739cd11610177578063843739cd146103c057806384b0196e146103de5780638525a1d7146104025780638da5cb5b1461043257806391d148541461045057610211565b80635232f0d71461033757806353116137146103685780636272364414610398578063715018a6146103b657610211565b80632f2ff15d116101e45780632f2ff15d146102c357806335a5cfcb146102df57806336568abe146102fd5780634f6e590e1461031957610211565b806301d511f11461021657806301ffc9a71461023257806322dae16c14610262578063248a9ca314610293575b600080fd5b610230600480360381019061022b91906138fa565b610736565b005b61024c600480360381019061024791906139ce565b610863565b6040516102599190613a16565b60405180910390f35b61027c60048036038101906102779190613b1b565b6108dd565b60405161028a929190613c95565b60405180910390f35b6102ad60048036038101906102a89190613cf1565b610aa6565b6040516102ba9190613d1e565b60405180910390f35b6102dd60048036038101906102d89190613d39565b610ac6565b005b6102e7610ae7565b6040516102f49190613dc3565b60405180910390f35b61031760048036038101906103129190613d39565b610ba2565b005b610321610c25565b60405161032e9190613e04565b60405180910390f35b610351600480360381019061034c9190613e1f565b610c6f565b60405161035f929190613c95565b60405180910390f35b610382600480360381019061037d9190613f20565b610cd0565b60405161038f9190613e04565b60405180910390f35b6103a0610d4b565b6040516103ad9190613d1e565b60405180910390f35b6103be610d6f565b005b6103c8610d83565b6040516103d59190613dc3565b60405180910390f35b6103e6610dc0565b6040516103f997969594939291906140c6565b60405180910390f35b61041c6004803603810190610417919061414a565b610ec2565b6040516104299190614193565b60405180910390f35b61043a61102b565b60405161044791906141ae565b60405180910390f35b61046a60048036038101906104659190613d39565b611055565b6040516104779190613a16565b60405180910390f35b61049a600480360381019061049591906141c9565b6110c0565b6040516104a791906141f6565b60405180910390f35b6104ca60048036038101906104c59190613f20565b611157565b6040516104d79190613dc3565b60405180910390f35b6104e8611263565b6040516104f59190613e04565b60405180910390f35b6105066112ad565b6040516105139190613d1e565b60405180910390f35b6105366004803603810190610531919061426e565b6112b4565b6040516105439190613a16565b60405180910390f35b610554611372565b6040516105619190613dc3565b60405180910390f35b610584600480360381019061057f91906143af565b61143e565b6040516105919190613a16565b60405180910390f35b6105a261164c565b6040516105af9190613dc3565b60405180910390f35b6105d260048036038101906105cd91906143af565b611718565b6040516105df9190613a16565b60405180910390f35b61060260048036038101906105fd9190613f20565b6118ae565b60405161060f9190613dc3565b60405180910390f35b610632600480360381019061062d9190613f20565b61195e565b60405161063f9190613e04565b60405180910390f35b610662600480360381019061065d9190613d39565b611a71565b005b61067e6004803603810190610679919061442b565b611a92565b60405161068b9190614193565b60405180910390f35b6106ae60048036038101906106a9919061446b565b611ac3565b005b6106b8611b66565b6040516106c59190614517565b60405180910390f35b6106e860048036038101906106e391906141c9565b611b8c565b005b61070460048036038101906106ff91906141c9565b611c0f565b6040516107119190614193565b60405180910390f35b610734600480360381019061072f91906141c9565b611c58565b005b6000600a54905060405180608001604052803373ffffffffffffffffffffffffffffffffffffffff168152602001838152602001828152602001600015158152506008600083815260200190815260200160002060008201518160000160006101000a81548173ffffffffffffffffffffffffffffffffffffffff021916908373ffffffffffffffffffffffffffffffffffffffff16021790555060208201518160010190816107e69190614734565b506040820151816002015560608201518160030160006101000a81548160ff0219169083151502179055509050506108428185858560405160200161082e9493929190614833565b604051602081830303815290604052611cd3565b506001600a600082825461085691906148a9565b9250508190555050505050565b60007f7965db0b000000000000000000000000000000000000000000000000000000007bffffffffffffffffffffffffffffffffffffffffffffffffffffffff1916827bffffffffffffffffffffffffffffffffffffffffffffffffffffffff191614806108d657506108d582611dd2565b5b9050919050565b6108e561361a565b6000600360008773ffffffffffffffffffffffffffffffffffffffff1673ffffffffffffffffffffffffffffffffffffffff168152602001908152602001600020548310156109ac5782600360008873ffffffffffffffffffffffffffffffffffffffff1673ffffffffffffffffffffffffffffffffffffffff168152602001908152602001600020546040517f045f356c0000000000000000000000000000000000000000000000000000000081526004016109a39291906148dd565b60405180910390fd5b600060405180606001604052808873ffffffffffffffffffffffffffffffffffffffff16815260200185815260200187878080601f016020809104026020016040519081016040528093929190818152602001838380828437600081840152601f19601f8201169050808301925050505050505081525090506000610a937f2c521d146a6f6c09462cb178367b028f1718b1f01d7995bb405dae702c2bee7d89878a8a604051610a5d929190614936565b6040518091039020604051602001610a78949392919061494f565b60405160208183030381529060405280519060200120611e3c565b9050818193509350505094509492505050565b600060046000838152602001908152602001600020600101549050919050565b610acf82610aa6565b610ad881611e56565b610ae28383611e6a565b505050565b60606000610af361164c565b9050600581604051610b0591906149c5565b90815260200160405180910390208054610b1e90614561565b80601f0160208091040260200160405190810160405280929190818152602001828054610b4a90614561565b8015610b975780601f10610b6c57610100808354040283529160200191610b97565b820191906000526020600020905b815481529060010190602001808311610b7a57829003601f168201915b505050505091505090565b610baa611f4b565b73ffffffffffffffffffffffffffffffffffffffff168173ffffffffffffffffffffffffffffffffffffffff1614610c17576040517f08c379a0000000000000000000000000000000000000000000000000000000008152600401610c0e90614a4e565b60405180910390fd5b610c218282611f53565b5050565b600080610c666040518060400160405280600581526020017f5f7461696c00000000000000000000000000000000000000000000000000000081525061195e565b90508091505090565b610c7761361a565b6000610cc4858585600360008a73ffffffffffffffffffffffffffffffffffffffff1673ffffffffffffffffffffffffffffffffffffffff168152602001908152602001600020546108dd565b91509150935093915050565b600080825103610ce35760009050610d46565b6020825114610d2957816040517f3d7dc906000000000000000000000000000000000000000000000000000000008152600401610d209190613dc3565b60405180910390fd5b600082806020019051810190610d3f9190614a9a565b9050809150505b919050565b7fa7e0cd0f2772b23ee4c329892293a6bd99d48c306b094d6d008c9a8bb8b731e481565b610d77612035565b610d8160006120b3565b565b60606040518060400160405280600281526020017f712f000000000000000000000000000000000000000000000000000000000000815250905090565b600060608060008060006060610e0060017f000000000000000000000000000000000000000000000000000000000000000061217990919063ffffffff16565b610e3460027f000000000000000000000000000000000000000000000000000000000000000061217990919063ffffffff16565b46306000801b600067ffffffffffffffff811115610e5557610e546137cf565b5b604051908082528060200260200182016040528015610e835781602001602082028036833780820191505090505b507f0f00000000000000000000000000000000000000000000000000000000000000959493929190965096509650965096509650965090919293949596565b600080600760009054906101000a900473ffffffffffffffffffffffffffffffffffffffff1673ffffffffffffffffffffffffffffffffffffffff1663d0def52133856040518363ffffffff1660e01b8152600401610f22929190614ac7565b6020604051808303816000875af1158015610f41573d6000803e3d6000fd5b505050506040513d601f19601f82011682018060405250810190610f659190614b0c565b90506000600960003373ffffffffffffffffffffffffffffffffffffffff1673ffffffffffffffffffffffffffffffffffffffff16815260200190815260200160002090508082908060018154018082558091505060019003906000526020600020016000909190919091505580600960003373ffffffffffffffffffffffffffffffffffffffff1673ffffffffffffffffffffffffffffffffffffffff168152602001908152602001600020908054611020929190613651565b508192505050919050565b6000600660009054906101000a900473ffffffffffffffffffffffffffffffffffffffff16905090565b60006004600084815260200190815260200160002060000160008373ffffffffffffffffffffffffffffffffffffffff1673ffffffffffffffffffffffffffffffffffffffff16815260200190815260200160002060009054906101000a900460ff16905092915050565b6060600960008373ffffffffffffffffffffffffffffffffffffffff1673ffffffffffffffffffffffffffffffffffffffff16815260200190815260200160002080548060200260200160405190810160405280929190818152602001828054801561114b57602002820191906000526020600020905b815481526020019060010190808311611137575b50505050509050919050565b606060006040518060400160405280600281526020017f712f000000000000000000000000000000000000000000000000000000000000815250836040516020016111a3929190614b39565b60405160208183030381529060405290506005816040516111c491906149c5565b908152602001604051809103902080546111dd90614561565b80601f016020809104026020016040519081016040528092919081815260200182805461120990614561565b80156112565780601f1061122b57610100808354040283529160200191611256565b820191906000526020600020905b81548152906001019060200180831161123957829003601f168201915b5050505050915050919050565b6000806112a46040518060400160405280600581526020017f5f6865616400000000000000000000000000000000000000000000000000000081525061195e565b90508091505090565b6000801b81565b60003073ffffffffffffffffffffffffffffffffffffffff163373ffffffffffffffffffffffffffffffffffffffff161415801561131957506113177fa7e0cd0f2772b23ee4c329892293a6bd99d48c306b094d6d008c9a8bb8b731e433611055565b155b15611350576040517f20d82bef00000000000000000000000000000000000000000000000000000000815260040160405180910390fd5b6113628b8b8b8b8b8b8b8b8b8b612229565b90509a9950505050505050505050565b606060006113b46040518060400160405280600581526020017f5f7461696c00000000000000000000000000000000000000000000000000000081525061195e565b90506000816040516020016113c99190613e04565b604051602081830303815290604052905060006040518060400160405280600281526020017f712f00000000000000000000000000000000000000000000000000000000000081525082604051602001611424929190614b39565b604051602081830303815290604052905080935050505090565b600083838361144e838383611718565b611484576040517fbde0493900000000000000000000000000000000000000000000000000000000815260040160405180910390fd5b6001836020013561149591906148a9565b600360008560000160208101906114ac91906141c9565b73ffffffffffffffffffffffffffffffffffffffff1673ffffffffffffffffffffffffffffffffffffffff168152602001908152602001600020819055506115267fa7e0cd0f2772b23ee4c329892293a6bd99d48c306b094d6d008c9a8bb8b731e488600001602081019061152191906141c9565b611055565b61155c576040517f20d82bef00000000000000000000000000000000000000000000000000000000815260040160405180910390fd5b60008060008060008b80604001906115749190614b6c565b8101906115819190614cb0565b945094509450945094507fd51c7c5244bba290f6c37777de0bc20a70c18abd55539658bc63251379297dcd60405160405180910390a13073ffffffffffffffffffffffffffffffffffffffff1663a51831a886868686866040518663ffffffff1660e01b81526004016115f8959493929190614e79565b6020604051808303816000875af1158015611617573d6000803e3d6000fd5b505050506040513d601f19601f8201168201806040525081019061163b9190614f1b565b985050505050505050509392505050565b6060600061168e6040518060400160405280600581526020017f5f6865616400000000000000000000000000000000000000000000000000000081525061195e565b90506000816040516020016116a39190613e04565b604051602081830303815290604052905060006040518060400160405280600281526020017f712f000000000000000000000000000000000000000000000000000000000000815250826040516020016116fe929190614b39565b604051602081830303815290604052905080935050505090565b60008061180184848080601f016020809104026020016040519081016040528093929190818152602001838380828437600081840152601f19601f820116905080830192505050505050506117f37f2c521d146a6f6c09462cb178367b028f1718b1f01d7995bb405dae702c2bee7d88600001602081019061179a91906141c9565b89602001358a80604001906117af9190614b6c565b6040516117bd929190614936565b60405180910390206040516020016117d8949392919061494f565b60405160208183030381529060405280519060200120611e3c565b6125c190919063ffffffff16565b905084602001356003600087600001602081019061181f91906141c9565b73ffffffffffffffffffffffffffffffffffffffff1673ffffffffffffffffffffffffffffffffffffffff168152602001908152602001600020541480156118a4575084600001602081019061187591906141c9565b73ffffffffffffffffffffffffffffffffffffffff168173ffffffffffffffffffffffffffffffffffffffff16145b9150509392505050565b60606005826040516118c091906149c5565b908152602001604051809103902080546118d990614561565b80601f016020809104026020016040519081016040528092919081815260200182805461190590614561565b80156119525780601f1061192757610100808354040283529160200191611952565b820191906000526020600020905b81548152906001019060200180831161193557829003601f168201915b50505050509050919050565b6000806040518060400160405280600281526020017f712f000000000000000000000000000000000000000000000000000000000000815250836040516020016119a9929190614b39565b6040516020818303038152906040529050611a696005826040516119cd91906149c5565b908152602001604051809103902080546119e690614561565b80601f0160208091040260200160405190810160405280929190818152602001828054611a1290614561565b8015611a5f5780601f10611a3457610100808354040283529160200191611a5f565b820191906000526020600020905b815481529060010190602001808311611a4257829003601f168201915b5050505050610cd0565b915050919050565b611a7a82610aa6565b611a8381611e56565b611a8d8383611f53565b505050565b60096020528160005260406000208181548110611aae57600080fd5b90600052602060002001600091509150505481565b6000600a54905060016008600083815260200190815260200160002060030160006101000a81548160ff021916908315150217905550611b4683838080601f016020809104026020016040519081016040528093929190818152602001838380828437600081840152601f19601f82011690508083019250505050505050611cd3565b506001600a6000828254611b5a91906148a9565b92505081905550505050565b600760009054906101000a900473ffffffffffffffffffffffffffffffffffffffff1681565b611b94612035565b600073ffffffffffffffffffffffffffffffffffffffff168173ffffffffffffffffffffffffffffffffffffffff1603611c03576040517f08c379a0000000000000000000000000000000000000000000000000000000008152600401611bfa90614fba565b60405180910390fd5b611c0c816120b3565b50565b6000600360008373ffffffffffffffffffffffffffffffffffffffff1673ffffffffffffffffffffffffffffffffffffffff168152602001908152602001600020549050919050565b611c827fa7e0cd0f2772b23ee4c329892293a6bd99d48c306b094d6d008c9a8bb8b731e482611e6a565b50565b6000602083511015611ca157611c9a836125e8565b9050611cc3565b82611cab83611cc9565b6000019081611cba9190614734565b5060ff60001b90505b92915050565b6000819050919050565b600080611d146040518060400160405280600581526020017f5f7461696c00000000000000000000000000000000000000000000000000000081525061195e565b9050600081604051602001611d299190613e04565b6040516020818303038152906040529050611d448185612650565b611d8f6040518060400160405280600581526020017f5f7461696c000000000000000000000000000000000000000000000000000000815250600184611d8a9190614fda565b6126dc565b7f907e5e373368eaab41cf7fd560721ee39c92964cc7abc6eba2acb769b1f707998285604051611dc0929190615043565b60405180910390a18192505050919050565b60007f01ffc9a7000000000000000000000000000000000000000000000000000000007bffffffffffffffffffffffffffffffffffffffffffffffffffffffff1916827bffffffffffffffffffffffffffffffffffffffffffffffffffffffff1916149050919050565b6000611e4f611e49612787565b8361283e565b9050919050565b611e6781611e62611f4b565b61287f565b50565b611e748282611055565b611f475760016004600084815260200190815260200160002060000160008373ffffffffffffffffffffffffffffffffffffffff1673ffffffffffffffffffffffffffffffffffffffff16815260200190815260200160002060006101000a81548160ff021916908315150217905550611eec611f4b565b73ffffffffffffffffffffffffffffffffffffffff168173ffffffffffffffffffffffffffffffffffffffff16837f2f8788117e7eff1d82e926ec794901d17c78024a50270940304540a733656f0d60405160405180910390a45b5050565b600033905090565b611f5d8282611055565b156120315760006004600084815260200190815260200160002060000160008373ffffffffffffffffffffffffffffffffffffffff1673ffffffffffffffffffffffffffffffffffffffff16815260200190815260200160002060006101000a81548160ff021916908315150217905550611fd6611f4b565b73ffffffffffffffffffffffffffffffffffffffff168173ffffffffffffffffffffffffffffffffffffffff16837ff6391f5c32d9c69d2a47ea670b442974b53935d1edc7fd64eb21e047a839171b60405160405180910390a45b5050565b61203d611f4b565b73ffffffffffffffffffffffffffffffffffffffff1661205b61102b565b73ffffffffffffffffffffffffffffffffffffffff16146120b1576040517f08c379a00000000000000000000000000000000000000000000000000000000081526004016120a8906150bf565b60405180910390fd5b565b6000600660009054906101000a900473ffffffffffffffffffffffffffffffffffffffff16905081600660006101000a81548173ffffffffffffffffffffffffffffffffffffffff021916908373ffffffffffffffffffffffffffffffffffffffff1602179055508173ffffffffffffffffffffffffffffffffffffffff168173ffffffffffffffffffffffffffffffffffffffff167f8be0079c531659141344cd1fd0a4f28419497f9722a3daafe3b4186f6b6457e060405160405180910390a35050565b606060ff60001b83146121965761218f83612904565b9050612223565b8180546121a290614561565b80601f01602080910402602001604051908101604052809291908181526020018280546121ce90614561565b801561221b5780601f106121f05761010080835404028352916020019161221b565b820191906000526020600020905b8154815290600101906020018083116121fe57829003601f168201915b505050505090505b92915050565b6000612233612978565b888890508b8b905014612285578a8a9050898990506040517f60e5688800000000000000000000000000000000000000000000000000000000815260040161227c9291906148dd565b60405180910390fd5b8484905087879050146122d75786869050858590506040517fcca1bd420000000000000000000000000000000000000000000000000000000081526004016122ce9291906148dd565b60405180910390fd5b60005b8b8b90508110156124bf5760006123bb60058e8e858181106122ff576122fe6150df565b5b90506020028101906123119190614b6c565b60405161231f929190614936565b9081526020016040518091039020805461233890614561565b80601f016020809104026020016040519081016040528092919081815260200182805461236490614561565b80156123b15780601f10612386576101008083540402835291602001916123b1565b820191906000526020600020905b81548152906001019060200180831161239457829003601f168201915b5050505050610cd0565b9050600061242f8c8c858181106123d5576123d46150df565b5b90506020028101906123e79190614b6c565b8080601f016020809104026020016040519081016040528093929190818152602001838380828437600081840152601f19601f82011690508083019250505050505050610cd0565b90508063ffffffff168263ffffffff16146124aa578d8d84818110612457576124566150df565b5b90506020028101906124699190614b6c565b82846040517fb2e58ea60000000000000000000000000000000000000000000000000000000081526004016124a1949392919061513b565b60405180910390fd5b505080806124b79061517b565b9150506122da565b5060005b87879050811015612557578585828181106124e1576124e06150df565b5b90506020028101906124f39190614b6c565b60058a8a85818110612508576125076150df565b5b905060200281019061251a9190614b6c565b604051612528929190614936565b90815260200160405180910390209182612543929190615229565b50808061254f9061517b565b9150506124c3565b5060005b838390508110156125a65761259384848381811061257c5761257b6150df565b5b905060200281019061258e9190614b6c565b6129c7565b808061259e9061517b565b91505061255b565b50600190506125b3612c42565b9a9950505050505050505050565b60008060006125d08585612c4c565b915091506125dd81612c9d565b819250505092915050565b600080829050601f8151111561263557826040517f305a27a900000000000000000000000000000000000000000000000000000000815260040161262c91906152f9565b60405180910390fd5b80518161264190615340565b60001c1760001b915050919050565b60006040518060400160405280600281526020017f712f0000000000000000000000000000000000000000000000000000000000008152508360405160200161269a929190614b39565b6040516020818303038152906040529050816005826040516126bc91906149c5565b908152602001604051809103902090816126d691906153a7565b50505050565b60006040518060400160405280600281526020017f712f00000000000000000000000000000000000000000000000000000000000081525083604051602001612726929190614b39565b6040516020818303038152906040529050816040516020016127489190613e04565b60405160208183030381529060405260058260405161276791906149c5565b9081526020016040518091039020908161278191906153a7565b50505050565b60007f000000000000000000000000000000000000000000000000000000000000000073ffffffffffffffffffffffffffffffffffffffff163073ffffffffffffffffffffffffffffffffffffffff1614801561280357507f000000000000000000000000000000000000000000000000000000000000000046145b15612830577f0000000000000000000000000000000000000000000000000000000000000000905061283b565b612838612e03565b90505b90565b60006040517f190100000000000000000000000000000000000000000000000000000000000081528360028201528260228201526042812091505092915050565b6128898282611055565b6129005761289681612e99565b6128a48360001c6020612ec6565b6040516020016128b592919061554d565b6040516020818303038152906040526040517f08c379a00000000000000000000000000000000000000000000000000000000081526004016128f791906152f9565b60405180910390fd5b5050565b6060600061291183613102565b90506000602067ffffffffffffffff8111156129305761292f6137cf565b5b6040519080825280601f01601f1916602001820160405280156129625781602001600182028036833780820191505090505b5090508181528360208201528092505050919050565b6002600054036129bd576040517f08c379a00000000000000000000000000000000000000000000000000000000081526004016129b4906155d3565b60405180910390fd5b6002600081905550565b6000828260008181106129dd576129dc6150df565b5b9050013560f81c60f81b60f81c9050600060ff168160ff1603612a1a57612a1583836001908092612a10939291906155fd565b613152565b612c3d565b600160ff168160ff1603612aa5576021838390501015612a725760016040517f565ba7b9000000000000000000000000000000000000000000000000000000008152600401612a699190615654565b60405180910390fd5b600083836001908092612a87939291906155fd565b810190612a949190615684565b9050612a9f81613307565b50612c3c565b600a60ff168160ff1603612b51576015838390501015612afd57600a6040517f565ba7b9000000000000000000000000000000000000000000000000000000008152600401612af49190615654565b60405180910390fd5b600083836001908092612b12939291906155fd565b810190612b1f91906156ef565b9050612b4b7fa7e0cd0f2772b23ee4c329892293a6bd99d48c306b094d6d008c9a8bb8b731e482611e6a565b50612c3b565b600b60ff168160ff1603612bfd576015838390501015612ba957600b6040517f565ba7b9000000000000000000000000000000000000000000000000000000008152600401612ba09190615654565b60405180910390fd5b600083836001908092612bbe939291906155fd565b810190612bcb91906156ef565b9050612bf77fa7e0cd0f2772b23ee4c329892293a6bd99d48c306b094d6d008c9a8bb8b731e482611f53565b50612c3a565b806040517f0e8b3d1d000000000000000000000000000000000000000000000000000000008152600401612c319190615654565b60405180910390fd5b5b5b5b505050565b6001600081905550565b6000806041835103612c8d5760008060006020860151925060408601519150606086015160001a9050612c818782858561348a565b94509450505050612c96565b60006002915091505b9250929050565b60006004811115612cb157612cb061571c565b5b816004811115612cc457612cc361571c565b5b0315612e005760016004811115612cde57612cdd61571c565b5b816004811115612cf157612cf061571c565b5b03612d31576040517f08c379a0000000000000000000000000000000000000000000000000000000008152600401612d2890615797565b60405180910390fd5b60026004811115612d4557612d4461571c565b5b816004811115612d5857612d5761571c565b5b03612d98576040517f08c379a0000000000000000000000000000000000000000000000000000000008152600401612d8f90615803565b60405180910390fd5b60036004811115612dac57612dab61571c565b5b816004811115612dbf57612dbe61571c565b5b03612dff576040517f08c379a0000000000000000000000000000000000000000000000000000000008152600401612df690615895565b60405180910390fd5b5b50565b60007f8b73c3c69bb8fe3d512ecc4cf759cc79239f7b179b0ffacaa9a75d522b39400f7f00000000000000000000000000000000000000000000000000000000000000007f00000000000000000000000000000000000000000000000000000000000000004630604051602001612e7e9594939291906158b5565b60405160208183030381529060405280519060200120905090565b6060612ebf8273ffffffffffffffffffffffffffffffffffffffff16601460ff16612ec6565b9050919050565b606060006002836002612ed99190615908565b612ee391906148a9565b67ffffffffffffffff811115612efc57612efb6137cf565b5b6040519080825280601f01601f191660200182016040528015612f2e5781602001600182028036833780820191505090505b5090507f300000000000000000000000000000000000000000000000000000000000000081600081518110612f6657612f656150df565b5b60200101907effffffffffffffffffffffffffffffffffffffffffffffffffffffffffffff1916908160001a9053507f780000000000000000000000000000000000000000000000000000000000000081600181518110612fca57612fc96150df565b5b60200101907effffffffffffffffffffffffffffffffffffffffffffffffffffffffffffff1916908160001a9053506000600184600261300a9190615908565b61301491906148a9565b90505b60018111156130b4577f3031323334353637383961626364656600000000000000000000000000000000600f861660108110613056576130556150df565b5b1a60f81b82828151811061306d5761306c6150df565b5b60200101907effffffffffffffffffffffffffffffffffffffffffffffffffffffffffffff1916908160001a905350600485901c9450806130ad9061594a565b9050613017565b50600084146130f8576040517f08c379a00000000000000000000000000000000000000000000000000000000081526004016130ef906159bf565b60405180910390fd5b8091505092915050565b60008060ff8360001c169050601f811115613149576040517fb3512b0c00000000000000000000000000000000000000000000000000000000815260040160405180910390fd5b80915050919050565b6000806000806000868681019061316991906159df565b945094509450945094506000850361323a577f2c2b2a1b86256c8afaa57bfcbf2f957a11dc06dd209f716beb459034bd9f535b84600860008781526020019081526020016000208585856040516131c4959493929190615c69565b60405180910390a160086000858152602001908152602001600020600080820160006101000a81549073ffffffffffffffffffffffffffffffffffffffff021916905560018201600061321791906136a3565b60028201600090556003820160006101000a81549060ff021916905550506132fe565b600285036132fd577f60fd0a4fb1aac2bfbc0ef044f8d1bf07bf8838388e655c0d6097455466f7ba77846008600087815260200190815260200160002085858560405161328b959493929190615c69565b60405180910390a160086000858152602001908152602001600020600080820160006101000a81549073ffffffffffffffffffffffffffffffffffffffff02191690556001820160006132de91906136a3565b60028201600090556003820160006101000a81549060ff021916905550505b5b50505050505050565b60006133476040518060400160405280600581526020017f5f7461696c00000000000000000000000000000000000000000000000000000081525061195e565b90508063ffffffff168263ffffffff16111561339c5781816040517f186c5d53000000000000000000000000000000000000000000000000000000008152600401613393929190615cd8565b60405180910390fd5b60006133dc6040518060400160405280600581526020017f5f6865616400000000000000000000000000000000000000000000000000000081525061195e565b90505b8263ffffffff168163ffffffff16101561340f576133fc8161356c565b808061340790615d01565b9150506133df565b5061344f6040518060400160405280600581526020017f5f68656164000000000000000000000000000000000000000000000000000000815250836126dc565b7f32fd4e5662a5d890e9d364f2b91716af396675b17d0d56aa259e0a42ca55751c8260405161347e9190615d2d565b60405180910390a15050565b6000807f7fffffffffffffffffffffffffffffff5d576e7357a4501ddfe92f46681b20a08360001c11156134c5576000600391509150613563565b6000600187878787604051600081526020016040526040516134ea9493929190615d48565b6020604051602081039080840390855afa15801561350c573d6000803e3d6000fd5b505050602060405103519050600073ffffffffffffffffffffffffffffffffffffffff168173ffffffffffffffffffffffffffffffffffffffff160361355a57600060019250925050613563565b80600092509250505b94509492505050565b60008160405160200161357f9190613e04565b604051602081830303815290604052905060006040518060400160405280600281526020017f712f000000000000000000000000000000000000000000000000000000000000815250826040516020016135da929190614b39565b60405160208183030381529060405290506005816040516135fb91906149c5565b9081526020016040518091039020600061361591906136e3565b505050565b6040518060600160405280600073ffffffffffffffffffffffffffffffffffffffff16815260200160008152602001606081525090565b8280548282559060005260206000209081019282156136925760005260206000209182015b82811115613691578254825591600101919060010190613676565b5b50905061369f9190613723565b5090565b5080546136af90614561565b6000825580601f106136c157506136e0565b601f0160209004906000526020600020908101906136df9190613723565b5b50565b5080546136ef90614561565b6000825580601f106137015750613720565b601f01602090049060005260206000209081019061371f9190613723565b5b50565b5b8082111561373c576000816000905550600101613724565b5090565b6000604051905090565b600080fd5b600080fd5b600080fd5b600080fd5b600080fd5b60008083601f84011261377957613778613754565b5b8235905067ffffffffffffffff81111561379657613795613759565b5b6020830191508360018202830111156137b2576137b161375e565b5b9250929050565b600080fd5b6000601f19601f8301169050919050565b7f4e487b7100000000000000000000000000000000000000000000000000000000600052604160045260246000fd5b613807826137be565b810181811067ffffffffffffffff82111715613826576138256137cf565b5b80604052505050565b6000613839613740565b905061384582826137fe565b919050565b600067ffffffffffffffff821115613865576138646137cf565b5b61386e826137be565b9050602081019050919050565b82818337600083830152505050565b600061389d6138988461384a565b61382f565b9050828152602081018484840111156138b9576138b86137b9565b5b6138c484828561387b565b509392505050565b600082601f8301126138e1576138e0613754565b5b81356138f184826020860161388a565b91505092915050565b6000806000604084860312156139135761391261374a565b5b600084013567ffffffffffffffff8111156139315761393061374f565b5b61393d86828701613763565b9350935050602084013567ffffffffffffffff8111156139605761395f61374f565b5b61396c868287016138cc565b9150509250925092565b60007fffffffff0000000000000000000000000000000000000000000000000000000082169050919050565b6139ab81613976565b81146139b657600080fd5b50565b6000813590506139c8816139a2565b92915050565b6000602082840312156139e4576139e361374a565b5b60006139f2848285016139b9565b91505092915050565b60008115159050919050565b613a10816139fb565b82525050565b6000602082019050613a2b6000830184613a07565b92915050565b600073ffffffffffffffffffffffffffffffffffffffff82169050919050565b6000613a5c82613a31565b9050919050565b613a6c81613a51565b8114613a7757600080fd5b50565b600081359050613a8981613a63565b92915050565b60008083601f840112613aa557613aa4613754565b5b8235905067ffffffffffffffff811115613ac257613ac1613759565b5b602083019150836001820283011115613ade57613add61375e565b5b9250929050565b6000819050919050565b613af881613ae5565b8114613b0357600080fd5b50565b600081359050613b1581613aef565b92915050565b60008060008060608587031215613b3557613b3461374a565b5b6000613b4387828801613a7a565b945050602085013567ffffffffffffffff811115613b6457613b6361374f565b5b613b7087828801613a8f565b93509350506040613b8387828801613b06565b91505092959194509250565b613b9881613a51565b82525050565b613ba781613ae5565b82525050565b600081519050919050565b600082825260208201905092915050565b60005b83811015613be7578082015181840152602081019050613bcc565b60008484015250505050565b6000613bfe82613bad565b613c088185613bb8565b9350613c18818560208601613bc9565b613c21816137be565b840191505092915050565b6000606083016000830151613c446000860182613b8f565b506020830151613c576020860182613b9e565b5060408301518482036040860152613c6f8282613bf3565b9150508091505092915050565b6000819050919050565b613c8f81613c7c565b82525050565b60006040820190508181036000830152613caf8185613c2c565b9050613cbe6020830184613c86565b9392505050565b613cce81613c7c565b8114613cd957600080fd5b50565b600081359050613ceb81613cc5565b92915050565b600060208284031215613d0757613d0661374a565b5b6000613d1584828501613cdc565b91505092915050565b6000602082019050613d336000830184613c86565b92915050565b60008060408385031215613d5057613d4f61374a565b5b6000613d5e85828601613cdc565b9250506020613d6f85828601613a7a565b9150509250929050565b600082825260208201905092915050565b6000613d9582613bad565b613d9f8185613d79565b9350613daf818560208601613bc9565b613db8816137be565b840191505092915050565b60006020820190508181036000830152613ddd8184613d8a565b905092915050565b600063ffffffff82169050919050565b613dfe81613de5565b82525050565b6000602082019050613e196000830184613df5565b92915050565b600080600060408486031215613e3857613e3761374a565b5b6000613e4686828701613a7a565b935050602084013567ffffffffffffffff811115613e6757613e6661374f565b5b613e7386828701613a8f565b92509250509250925092565b600067ffffffffffffffff821115613e9a57613e996137cf565b5b613ea3826137be565b9050602081019050919050565b6000613ec3613ebe84613e7f565b61382f565b905082815260208101848484011115613edf57613ede6137b9565b5b613eea84828561387b565b509392505050565b600082601f830112613f0757613f06613754565b5b8135613f17848260208601613eb0565b91505092915050565b600060208284031215613f3657613f3561374a565b5b600082013567ffffffffffffffff811115613f5457613f5361374f565b5b613f6084828501613ef2565b91505092915050565b60007fff0000000000000000000000000000000000000000000000000000000000000082169050919050565b613f9e81613f69565b82525050565b600081519050919050565b600082825260208201905092915050565b6000613fcb82613fa4565b613fd58185613faf565b9350613fe5818560208601613bc9565b613fee816137be565b840191505092915050565b61400281613ae5565b82525050565b61401181613a51565b82525050565b600081519050919050565b600082825260208201905092915050565b6000819050602082019050919050565b600061404f8383613b9e565b60208301905092915050565b6000602082019050919050565b600061407382614017565b61407d8185614022565b935061408883614033565b8060005b838110156140b95781516140a08882614043565b97506140ab8361405b565b92505060018101905061408c565b5085935050505092915050565b600060e0820190506140db600083018a613f95565b81810360208301526140ed8189613fc0565b905081810360408301526141018188613fc0565b90506141106060830187613ff9565b61411d6080830186614008565b61412a60a0830185613c86565b81810360c083015261413c8184614068565b905098975050505050505050565b6000602082840312156141605761415f61374a565b5b600082013567ffffffffffffffff81111561417e5761417d61374f565b5b61418a848285016138cc565b91505092915050565b60006020820190506141a86000830184613ff9565b92915050565b60006020820190506141c36000830184614008565b92915050565b6000602082840312156141df576141de61374a565b5b60006141ed84828501613a7a565b91505092915050565b600060208201905081810360008301526142108184614068565b905092915050565b60008083601f84011261422e5761422d613754565b5b8235905067ffffffffffffffff81111561424b5761424a613759565b5b6020830191508360208202830111156142675761426661375e565b5b9250929050565b60008060008060008060008060008060a08b8d0312156142915761429061374a565b5b60008b013567ffffffffffffffff8111156142af576142ae61374f565b5b6142bb8d828e01614218565b9a509a505060208b013567ffffffffffffffff8111156142de576142dd61374f565b5b6142ea8d828e01614218565b985098505060408b013567ffffffffffffffff81111561430d5761430c61374f565b5b6143198d828e01614218565b965096505060608b013567ffffffffffffffff81111561433c5761433b61374f565b5b6143488d828e01614218565b945094505060808b013567ffffffffffffffff81111561436b5761436a61374f565b5b6143778d828e01614218565b92509250509295989b9194979a5092959850565b600080fd5b6000606082840312156143a6576143a561438b565b5b81905092915050565b6000806000604084860312156143c8576143c761374a565b5b600084013567ffffffffffffffff8111156143e6576143e561374f565b5b6143f286828701614390565b935050602084013567ffffffffffffffff8111156144135761441261374f565b5b61441f86828701613a8f565b92509250509250925092565b600080604083850312156144425761444161374a565b5b600061445085828601613a7a565b925050602061446185828601613b06565b9150509250929050565b600080602083850312156144825761448161374a565b5b600083013567ffffffffffffffff8111156144a05761449f61374f565b5b6144ac85828601613a8f565b92509250509250929050565b6000819050919050565b60006144dd6144d86144d384613a31565b6144b8565b613a31565b9050919050565b60006144ef826144c2565b9050919050565b6000614501826144e4565b9050919050565b614511816144f6565b82525050565b600060208201905061452c6000830184614508565b92915050565b7f4e487b7100000000000000000000000000000000000000000000000000000000600052602260045260246000fd5b6000600282049050600182168061457957607f821691505b60208210810361458c5761458b614532565b5b50919050565b60008190508160005260206000209050919050565b60006020601f8301049050919050565b600082821b905092915050565b6000600883026145f47fffffffffffffffffffffffffffffffffffffffffffffffffffffffffffffffff826145b7565b6145fe86836145b7565b95508019841693508086168417925050509392505050565b600061463161462c61462784613ae5565b6144b8565b613ae5565b9050919050565b6000819050919050565b61464b83614616565b61465f61465782614638565b8484546145c4565b825550505050565b600090565b614674614667565b61467f818484614642565b505050565b5b818110156146a35761469860008261466c565b600181019050614685565b5050565b601f8211156146e8576146b981614592565b6146c2846145a7565b810160208510156146d1578190505b6146e56146dd856145a7565b830182614684565b50505b505050565b600082821c905092915050565b600061470b600019846008026146ed565b1980831691505092915050565b600061472483836146fa565b9150826002028217905092915050565b61473d82613fa4565b67ffffffffffffffff811115614756576147556137cf565b5b6147608254614561565b61476b8282856146a7565b600060209050601f83116001811461479e576000841561478c578287015190505b6147968582614718565b8655506147fe565b601f1984166147ac86614592565b60005b828110156147d4578489015182556001820191506020850194506020810190506147af565b868310156147f157848901516147ed601f8916826146fa565b8355505b6001600288020188555050505b505050505050565b60006148128385613faf565b935061481f83858461387b565b614828836137be565b840190509392505050565b60006060820190506148486000830187613ff9565b818103602083015261485b818587614806565b9050818103604083015261486f8184613fc0565b905095945050505050565b7f4e487b7100000000000000000000000000000000000000000000000000000000600052601160045260246000fd5b60006148b482613ae5565b91506148bf83613ae5565b92508282019050808211156148d7576148d661487a565b5b92915050565b60006040820190506148f26000830185613ff9565b6148ff6020830184613ff9565b9392505050565b600081905092915050565b600061491d8385614906565b935061492a83858461387b565b82840190509392505050565b6000614943828486614911565b91508190509392505050565b60006080820190506149646000830187613c86565b6149716020830186614008565b61497e6040830185613ff9565b61498b6060830184613c86565b95945050505050565b600061499f82613bad565b6149a98185614906565b93506149b9818560208601613bc9565b80840191505092915050565b60006149d18284614994565b915081905092915050565b7f416363657373436f6e74726f6c3a2063616e206f6e6c792072656e6f756e636560008201527f20726f6c657320666f722073656c660000000000000000000000000000000000602082015250565b6000614a38602f83613faf565b9150614a43826149dc565b604082019050919050565b60006020820190508181036000830152614a6781614a2b565b9050919050565b614a7781613de5565b8114614a8257600080fd5b50565b600081519050614a9481614a6e565b92915050565b600060208284031215614ab057614aaf61374a565b5b6000614abe84828501614a85565b91505092915050565b6000604082019050614adc6000830185614008565b8181036020830152614aee8184613fc0565b90509392505050565b600081519050614b0681613aef565b92915050565b600060208284031215614b2257614b2161374a565b5b6000614b3084828501614af7565b91505092915050565b6000614b458285614994565b9150614b518284614994565b91508190509392505050565b600080fd5b600080fd5b600080fd5b60008083356001602003843603038112614b8957614b88614b5d565b5b80840192508235915067ffffffffffffffff821115614bab57614baa614b62565b5b602083019250600182023603831315614bc757614bc6614b67565b5b509250929050565b600067ffffffffffffffff821115614bea57614be96137cf565b5b602082029050602081019050919050565b6000614c0e614c0984614bcf565b61382f565b90508083825260208201905060208402830185811115614c3157614c3061375e565b5b835b81811015614c7857803567ffffffffffffffff811115614c5657614c55613754565b5b808601614c638982613ef2565b85526020850194505050602081019050614c33565b5050509392505050565b600082601f830112614c9757614c96613754565b5b8135614ca7848260208601614bfb565b91505092915050565b600080600080600060a08688031215614ccc57614ccb61374a565b5b600086013567ffffffffffffffff811115614cea57614ce961374f565b5b614cf688828901614c82565b955050602086013567ffffffffffffffff811115614d1757614d1661374f565b5b614d2388828901614c82565b945050604086013567ffffffffffffffff811115614d4457614d4361374f565b5b614d5088828901614c82565b935050606086013567ffffffffffffffff811115614d7157614d7061374f565b5b614d7d88828901614c82565b925050608086013567ffffffffffffffff811115614d9e57614d9d61374f565b5b614daa88828901614c82565b9150509295509295909350565b600081519050919050565b600082825260208201905092915050565b6000819050602082019050919050565b6000614def8383613bf3565b905092915050565b6000602082019050919050565b6000614e0f82614db7565b614e198185614dc2565b935083602082028501614e2b85614dd3565b8060005b85811015614e675784840389528151614e488582614de3565b9450614e5383614df7565b925060208a01995050600181019050614e2f565b50829750879550505050505092915050565b600060a0820190508181036000830152614e938188614e04565b90508181036020830152614ea78187614e04565b90508181036040830152614ebb8186614e04565b90508181036060830152614ecf8185614e04565b90508181036080830152614ee38184614e04565b90509695505050505050565b614ef8816139fb565b8114614f0357600080fd5b50565b600081519050614f1581614eef565b92915050565b600060208284031215614f3157614f3061374a565b5b6000614f3f84828501614f06565b91505092915050565b7f4f776e61626c653a206e6577206f776e657220697320746865207a65726f206160008201527f6464726573730000000000000000000000000000000000000000000000000000602082015250565b6000614fa4602683613faf565b9150614faf82614f48565b604082019050919050565b60006020820190508181036000830152614fd381614f97565b9050919050565b6000614fe582613de5565b9150614ff083613de5565b9250828201905063ffffffff81111561500c5761500b61487a565b5b92915050565b600061502d61502861502384613de5565b6144b8565b613ae5565b9050919050565b61503d81615012565b82525050565b60006040820190506150586000830185615034565b818103602083015261506a8184613d8a565b90509392505050565b7f4f776e61626c653a2063616c6c6572206973206e6f7420746865206f776e6572600082015250565b60006150a9602083613faf565b91506150b482615073565b602082019050919050565b600060208201905081810360008301526150d88161509c565b9050919050565b7f4e487b7100000000000000000000000000000000000000000000000000000000600052603260045260246000fd5b600061511a8385613d79565b935061512783858461387b565b615130836137be565b840190509392505050565b6000606082019050818103600083015261515681868861510e565b90506151656020830185613df5565b6151726040830184613df5565b95945050505050565b600061518682613ae5565b91507fffffffffffffffffffffffffffffffffffffffffffffffffffffffffffffffff82036151b8576151b761487a565b5b600182019050919050565b600082905092915050565b60008190508160005260206000209050919050565b601f821115615224576151f5816151ce565b6151fe846145a7565b8101602085101561520d578190505b615221615219856145a7565b830182614684565b50505b505050565b61523383836151c3565b67ffffffffffffffff81111561524c5761524b6137cf565b5b6152568254614561565b6152618282856151e3565b6000601f831160018114615290576000841561527e578287013590505b6152888582614718565b8655506152f0565b601f19841661529e866151ce565b60005b828110156152c6578489013582556001820191506020850194506020810190506152a1565b868310156152e357848901356152df601f8916826146fa565b8355505b6001600288020188555050505b50505050505050565b600060208201905081810360008301526153138184613fc0565b905092915050565b6000819050602082019050919050565b60006153378251613c7c565b80915050919050565b600061534b82613bad565b826153558461531b565b90506153608161532b565b925060208210156153a05761539b7fffffffffffffffffffffffffffffffffffffffffffffffffffffffffffffffff836020036008026145b7565b831692505b5050919050565b6153b082613bad565b67ffffffffffffffff8111156153c9576153c86137cf565b5b6153d38254614561565b6153de8282856151e3565b600060209050601f83116001811461541157600084156153ff578287015190505b6154098582614718565b865550615471565b601f19841661541f866151ce565b60005b8281101561544757848901518255600182019150602085019450602081019050615422565b868310156154645784890151615460601f8916826146fa565b8355505b6001600288020188555050505b505050505050565b600081905092915050565b7f416363657373436f6e74726f6c3a206163636f756e7420000000000000000000600082015250565b60006154ba601783615479565b91506154c582615484565b601782019050919050565b60006154db82613fa4565b6154e58185615479565b93506154f5818560208601613bc9565b80840191505092915050565b7f206973206d697373696e6720726f6c6520000000000000000000000000000000600082015250565b6000615537601183615479565b915061554282615501565b601182019050919050565b6000615558826154ad565b915061556482856154d0565b915061556f8261552a565b915061557b82846154d0565b91508190509392505050565b7f5265656e7472616e637947756172643a207265656e7472616e742063616c6c00600082015250565b60006155bd601f83613faf565b91506155c882615587565b602082019050919050565b600060208201905081810360008301526155ec816155b0565b9050919050565b600080fd5b600080fd5b60008085851115615611576156106155f3565b5b83861115615622576156216155f8565b5b6001850283019150848603905094509492505050565b600060ff82169050919050565b61564e81615638565b82525050565b60006020820190506156696000830184615645565b92915050565b60008135905061567e81614a6e565b92915050565b60006020828403121561569a5761569961374a565b5b60006156a88482850161566f565b91505092915050565b60006156bc82613a31565b9050919050565b6156cc816156b1565b81146156d757600080fd5b50565b6000813590506156e9816156c3565b92915050565b6000602082840312156157055761570461374a565b5b6000615713848285016156da565b91505092915050565b7f4e487b7100000000000000000000000000000000000000000000000000000000600052602160045260246000fd5b7f45434453413a20696e76616c6964207369676e61747572650000000000000000600082015250565b6000615781601883613faf565b915061578c8261574b565b602082019050919050565b600060208201905081810360008301526157b081615774565b9050919050565b7f45434453413a20696e76616c6964207369676e6174757265206c656e67746800600082015250565b60006157ed601f83613faf565b91506157f8826157b7565b602082019050919050565b6000602082019050818103600083015261581c816157e0565b9050919050565b7f45434453413a20696e76616c6964207369676e6174757265202773272076616c60008201527f7565000000000000000000000000000000000000000000000000000000000000602082015250565b600061587f602283613faf565b915061588a82615823565b604082019050919050565b600060208201905081810360008301526158ae81615872565b9050919050565b600060a0820190506158ca6000830188613c86565b6158d76020830187613c86565b6158e46040830186613c86565b6158f16060830185613ff9565b6158fe6080830184614008565b9695505050505050565b600061591382613ae5565b915061591e83613ae5565b925082820261592c81613ae5565b915082820484148315176159435761594261487a565b5b5092915050565b600061595582613ae5565b9150600082036159685761596761487a565b5b600182039050919050565b7f537472696e67733a20686578206c656e67746820696e73756666696369656e74600082015250565b60006159a9602083613faf565b91506159b482615973565b602082019050919050565b600060208201905081810360008301526159d88161599c565b9050919050565b600080600080600060a086880312156159fb576159fa61374a565b5b6000615a0988828901613b06565b9550506020615a1a88828901613b06565b945050604086013567ffffffffffffffff811115615a3b57615a3a61374f565b5b615a47888289016138cc565b935050606086013567ffffffffffffffff811115615a6857615a6761374f565b5b615a74888289016138cc565b925050608086013567ffffffffffffffff811115615a9557615a9461374f565b5b615aa1888289016138cc565b9150509295509295909350565b60008160001c9050919050565b600073ffffffffffffffffffffffffffffffffffffffff82169050919050565b6000615aee615ae983615aae565b615abb565b9050919050565b600082825260208201905092915050565b60008154615b1381614561565b615b1d8186615af5565b94506001821660008114615b385760018114615b4e57615b81565b60ff198316865281151560200286019350615b81565b615b5785614592565b60005b83811015615b7957815481890152600182019150602081019050615b5a565b808801955050505b50505092915050565b6000819050919050565b6000615ba7615ba283615aae565b615b8a565b9050919050565b600060ff82169050919050565b6000615bce615bc983615aae565b615bae565b9050919050565b615bde816139fb565b82525050565b6000608083016000808401549050615bfb81615adb565b615c086000870182613b8f565b50600184018583036020870152615c1f8382615b06565b92505060028401549050615c3281615b94565b615c3f6040870182613b9e565b5060038401549050615c5081615bbb565b615c5d6060870182615bd5565b50819250505092915050565b600060a082019050615c7e6000830188613ff9565b8181036020830152615c908187615be4565b90508181036040830152615ca48186613fc0565b90508181036060830152615cb88185613fc0565b90508181036080830152615ccc8184613fc0565b90509695505050505050565b6000604082019050615ced6000830185615034565b615cfa6020830184615034565b9392505050565b6000615d0c82613de5565b915063ffffffff8203615d2257615d2161487a565b5b600182019050919050565b6000602082019050615d426000830184615034565b92915050565b6000608082019050615d5d6000830187613c86565b615d6a6020830186615645565b615d776040830185613c86565b615d846060830184613c86565b9594505050505056fea26469706673582212208bf438febacd0fb1f7c3e111553e7b19c70e71b9b63d4a4f44dea582de1a3d0364736f6c6343000811003360806040523480156200001157600080fd5b506040518060400160405280600981526020017f54726176656c4e465400000000000000000000000000000000000000000000008152506040518060400160405280600481526020017f544e46540000000000000000000000000000000000000000000000000000000081525081600090816200008f919062000412565b508060019081620000a1919062000412565b505050620000c4620000b8620000ca60201b60201c565b620000d260201b60201c565b620004f9565b600033905090565b6000600760009054906101000a900473ffffffffffffffffffffffffffffffffffffffff16905081600760006101000a81548173ffffffffffffffffffffffffffffffffffffffff021916908373ffffffffffffffffffffffffffffffffffffffff1602179055508173ffffffffffffffffffffffffffffffffffffffff168173ffffffffffffffffffffffffffffffffffffffff167f8be0079c531659141344cd1fd0a4f28419497f9722a3daafe3b4186f6b6457e060405160405180910390a35050565b600081519050919050565b7f4e487b7100000000000000000000000000000000000000000000000000000000600052604160045260246000fd5b7f4e487b7100000000000000000000000000000000000000000000000000000000600052602260045260246000fd5b600060028204905060018216806200021a57607f821691505b60208210810362000230576200022f620001d2565b5b50919050565b60008190508160005260206000209050919050565b60006020601f8301049050919050565b600082821b905092915050565b6000600883026200029a7fffffffffffffffffffffffffffffffffffffffffffffffffffffffffffffffff826200025b565b620002a686836200025b565b95508019841693508086168417925050509392505050565b6000819050919050565b6000819050919050565b6000620002f3620002ed620002e784620002be565b620002c8565b620002be565b9050919050565b6000819050919050565b6200030f83620002d2565b620003276200031e82620002fa565b84845462000268565b825550505050565b600090565b6200033e6200032f565b6200034b81848462000304565b505050565b5b8181101562000373576200036760008262000334565b60018101905062000351565b5050565b601f821115620003c2576200038c8162000236565b62000397846200024b565b81016020851015620003a7578190505b620003bf620003b6856200024b565b83018262000350565b50505b505050565b600082821c905092915050565b6000620003e760001984600802620003c7565b1980831691505092915050565b6000620004028383620003d4565b9150826002028217905092915050565b6200041d8262000198565b67ffffffffffffffff811115620004395762000438620001a3565b5b62000445825462000201565b6200045282828562000377565b600060209050601f8311600181146200048a576000841562000475578287015190505b620004818582620003f4565b865550620004f1565b601f1984166200049a8662000236565b60005b82811015620004c4578489015182556001820191506020850194506020810190506200049d565b86831015620004e45784890151620004e0601f891682620003d4565b8355505b6001600288020188555050505b505050505050565b612e4880620005096000396000f3fe608060405234801561001057600080fd5b506004361061010b5760003560e01c8063715018a6116100a2578063b88d4fde11610071578063b88d4fde146102a4578063c87b56dd146102c0578063d0def521146102f0578063e985e9c514610320578063f2fde38b146103505761010b565b8063715018a6146102425780638da5cb5b1461024c57806395d89b411461026a578063a22cb465146102885761010b565b806323b872dd116100de57806323b872dd146101aa57806342842e0e146101c65780636352211e146101e257806370a08231146102125761010b565b806301ffc9a71461011057806306fdde0314610140578063081812fc1461015e578063095ea7b31461018e575b600080fd5b61012a60048036038101906101259190611c39565b61036c565b6040516101379190611c81565b60405180910390f35b6101486103cd565b6040516101559190611d2c565b60405180910390f35b61017860048036038101906101739190611d84565b61045f565b6040516101859190611df2565b60405180910390f35b6101a860048036038101906101a39190611e39565b6104a5565b005b6101c460048036038101906101bf9190611e79565b6105bc565b005b6101e060048036038101906101db9190611e79565b61061c565b005b6101fc60048036038101906101f79190611d84565b61063c565b6040516102099190611df2565b60405180910390f35b61022c60048036038101906102279190611ecc565b6106c2565b6040516102399190611f08565b60405180910390f35b61024a610779565b005b61025461078d565b6040516102619190611df2565b60405180910390f35b6102726107b7565b60405161027f9190611d2c565b60405180910390f35b6102a2600480360381019061029d9190611f4f565b610849565b005b6102be60048036038101906102b991906120c4565b61085f565b005b6102da60048036038101906102d59190611d84565b6108c1565b6040516102e79190611d2c565b60405180910390f35b61030a600480360381019061030591906121e8565b6109d3565b6040516103179190611f08565b60405180910390f35b61033a60048036038101906103359190612244565b610a0b565b6040516103479190611c81565b60405180910390f35b61036a60048036038101906103659190611ecc565b610a9f565b005b6000634906490660e01b7bffffffffffffffffffffffffffffffffffffffffffffffffffffffff1916827bffffffffffffffffffffffffffffffffffffffffffffffffffffffff191614806103c657506103c582610b22565b5b9050919050565b6060600080546103dc906122b3565b80601f0160208091040260200160405190810160405280929190818152602001828054610408906122b3565b80156104555780601f1061042a57610100808354040283529160200191610455565b820191906000526020600020905b81548152906001019060200180831161043857829003601f168201915b5050505050905090565b600061046a82610c04565b6004600083815260200190815260200160002060009054906101000a900473ffffffffffffffffffffffffffffffffffffffff169050919050565b60006104b08261063c565b90508073ffffffffffffffffffffffffffffffffffffffff168373ffffffffffffffffffffffffffffffffffffffff1603610520576040517f08c379a000000000000000000000000000000000000000000000000000000000815260040161051790612356565b60405180910390fd5b8073ffffffffffffffffffffffffffffffffffffffff1661053f610c4f565b73ffffffffffffffffffffffffffffffffffffffff16148061056e575061056d81610568610c4f565b610a0b565b5b6105ad576040517f08c379a00000000000000000000000000000000000000000000000000000000081526004016105a4906123e8565b60405180910390fd5b6105b78383610c57565b505050565b6105cd6105c7610c4f565b82610d10565b61060c576040517f08c379a00000000000000000000000000000000000000000000000000000000081526004016106039061247a565b60405180910390fd5b610617838383610da5565b505050565b6106378383836040518060200160405280600081525061085f565b505050565b6000806106488361109e565b9050600073ffffffffffffffffffffffffffffffffffffffff168173ffffffffffffffffffffffffffffffffffffffff16036106b9576040517f08c379a00000000000000000000000000000000000000000000000000000000081526004016106b0906124e6565b60405180910390fd5b80915050919050565b60008073ffffffffffffffffffffffffffffffffffffffff168273ffffffffffffffffffffffffffffffffffffffff1603610732576040517f08c379a000000000000000000000000000000000000000000000000000000000815260040161072990612578565b60405180910390fd5b600360008373ffffffffffffffffffffffffffffffffffffffff1673ffffffffffffffffffffffffffffffffffffffff168152602001908152602001600020549050919050565b6107816110db565b61078b6000611159565b565b6000600760009054906101000a900473ffffffffffffffffffffffffffffffffffffffff16905090565b6060600180546107c6906122b3565b80601f01602080910402602001604051908101604052809291908181526020018280546107f2906122b3565b801561083f5780601f106108145761010080835404028352916020019161083f565b820191906000526020600020905b81548152906001019060200180831161082257829003601f168201915b5050505050905090565b61085b610854610c4f565b838361121f565b5050565b61087061086a610c4f565b83610d10565b6108af576040517f08c379a00000000000000000000000000000000000000000000000000000000081526004016108a69061247a565b60405180910390fd5b6108bb8484848461138b565b50505050565b60606108cc82610c04565b60006006600084815260200190815260200160002080546108ec906122b3565b80601f0160208091040260200160405190810160405280929190818152602001828054610918906122b3565b80156109655780601f1061093a57610100808354040283529160200191610965565b820191906000526020600020905b81548152906001019060200180831161094857829003601f168201915b5050505050905060006109766113e7565b9050600081510361098b5781925050506109ce565b6000825111156109c05780826040516020016109a89291906125d4565b604051602081830303815290604052925050506109ce565b6109c9846113fe565b925050505b919050565b60006109df6008611466565b60006109eb600861147c565b90506109f7848261148a565b610a0181846116a7565b8091505092915050565b6000600560008473ffffffffffffffffffffffffffffffffffffffff1673ffffffffffffffffffffffffffffffffffffffff16815260200190815260200160002060008373ffffffffffffffffffffffffffffffffffffffff1673ffffffffffffffffffffffffffffffffffffffff16815260200190815260200160002060009054906101000a900460ff16905092915050565b610aa76110db565b600073ffffffffffffffffffffffffffffffffffffffff168173ffffffffffffffffffffffffffffffffffffffff1603610b16576040517f08c379a0000000000000000000000000000000000000000000000000000000008152600401610b0d9061266a565b60405180910390fd5b610b1f81611159565b50565b60007f80ac58cd000000000000000000000000000000000000000000000000000000007bffffffffffffffffffffffffffffffffffffffffffffffffffffffff1916827bffffffffffffffffffffffffffffffffffffffffffffffffffffffff19161480610bed57507f5b5e139f000000000000000000000000000000000000000000000000000000007bffffffffffffffffffffffffffffffffffffffffffffffffffffffff1916827bffffffffffffffffffffffffffffffffffffffffffffffffffffffff1916145b80610bfd5750610bfc8261174b565b5b9050919050565b610c0d816117b5565b610c4c576040517f08c379a0000000000000000000000000000000000000000000000000000000008152600401610c43906124e6565b60405180910390fd5b50565b600033905090565b816004600083815260200190815260200160002060006101000a81548173ffffffffffffffffffffffffffffffffffffffff021916908373ffffffffffffffffffffffffffffffffffffffff160217905550808273ffffffffffffffffffffffffffffffffffffffff16610cca8361063c565b73ffffffffffffffffffffffffffffffffffffffff167f8c5be1e5ebec7d5bd14f71427d1e84f3dd0314c0f7b2291e5b200ac8c7c3b92560405160405180910390a45050565b600080610d1c8361063c565b90508073ffffffffffffffffffffffffffffffffffffffff168473ffffffffffffffffffffffffffffffffffffffff161480610d5e5750610d5d8185610a0b565b5b80610d9c57508373ffffffffffffffffffffffffffffffffffffffff16610d848461045f565b73ffffffffffffffffffffffffffffffffffffffff16145b91505092915050565b8273ffffffffffffffffffffffffffffffffffffffff16610dc58261063c565b73ffffffffffffffffffffffffffffffffffffffff1614610e1b576040517f08c379a0000000000000000000000000000000000000000000000000000000008152600401610e12906126fc565b60405180910390fd5b600073ffffffffffffffffffffffffffffffffffffffff168273ffffffffffffffffffffffffffffffffffffffff1603610e8a576040517f08c379a0000000000000000000000000000000000000000000000000000000008152600401610e819061278e565b60405180910390fd5b610e9783838360016117f6565b8273ffffffffffffffffffffffffffffffffffffffff16610eb78261063c565b73ffffffffffffffffffffffffffffffffffffffff1614610f0d576040517f08c379a0000000000000000000000000000000000000000000000000000000008152600401610f04906126fc565b60405180910390fd5b6004600082815260200190815260200160002060006101000a81549073ffffffffffffffffffffffffffffffffffffffff02191690556001600360008573ffffffffffffffffffffffffffffffffffffffff1673ffffffffffffffffffffffffffffffffffffffff168152602001908152602001600020600082825403925050819055506001600360008473ffffffffffffffffffffffffffffffffffffffff1673ffffffffffffffffffffffffffffffffffffffff16815260200190815260200160002060008282540192505081905550816002600083815260200190815260200160002060006101000a81548173ffffffffffffffffffffffffffffffffffffffff021916908373ffffffffffffffffffffffffffffffffffffffff160217905550808273ffffffffffffffffffffffffffffffffffffffff168473ffffffffffffffffffffffffffffffffffffffff167fddf252ad1be2c89b69c2b068fc378daa952ba7f163c4a11628f55a4df523b3ef60405160405180910390a461109983838360016117fc565b505050565b60006002600083815260200190815260200160002060009054906101000a900473ffffffffffffffffffffffffffffffffffffffff169050919050565b6110e3610c4f565b73ffffffffffffffffffffffffffffffffffffffff1661110161078d565b73ffffffffffffffffffffffffffffffffffffffff1614611157576040517f08c379a000000000000000000000000000000000000000000000000000000000815260040161114e906127fa565b60405180910390fd5b565b6000600760009054906101000a900473ffffffffffffffffffffffffffffffffffffffff16905081600760006101000a81548173ffffffffffffffffffffffffffffffffffffffff021916908373ffffffffffffffffffffffffffffffffffffffff1602179055508173ffffffffffffffffffffffffffffffffffffffff168173ffffffffffffffffffffffffffffffffffffffff167f8be0079c531659141344cd1fd0a4f28419497f9722a3daafe3b4186f6b6457e060405160405180910390a35050565b8173ffffffffffffffffffffffffffffffffffffffff168373ffffffffffffffffffffffffffffffffffffffff160361128d576040517f08c379a000000000000000000000000000000000000000000000000000000000815260040161128490612866565b60405180910390fd5b80600560008573ffffffffffffffffffffffffffffffffffffffff1673ffffffffffffffffffffffffffffffffffffffff16815260200190815260200160002060008473ffffffffffffffffffffffffffffffffffffffff1673ffffffffffffffffffffffffffffffffffffffff16815260200190815260200160002060006101000a81548160ff0219169083151502179055508173ffffffffffffffffffffffffffffffffffffffff168373ffffffffffffffffffffffffffffffffffffffff167f17307eab39ab6107e8899845ad3d59bd9653f200f220920489ca2b5937696c318360405161137e9190611c81565b60405180910390a3505050565b611396848484610da5565b6113a284848484611802565b6113e1576040517f08c379a00000000000000000000000000000000000000000000000000000000081526004016113d8906128f8565b60405180910390fd5b50505050565b606060405180602001604052806000815250905090565b606061140982610c04565b60006114136113e7565b90506000815111611433576040518060200160405280600081525061145e565b8061143d84611989565b60405160200161144e9291906125d4565b6040516020818303038152906040525b915050919050565b6001816000016000828254019250508190555050565b600081600001549050919050565b600073ffffffffffffffffffffffffffffffffffffffff168273ffffffffffffffffffffffffffffffffffffffff16036114f9576040517f08c379a00000000000000000000000000000000000000000000000000000000081526004016114f090612964565b60405180910390fd5b611502816117b5565b15611542576040517f08c379a0000000000000000000000000000000000000000000000000000000008152600401611539906129d0565b60405180910390fd5b6115506000838360016117f6565b611559816117b5565b15611599576040517f08c379a0000000000000000000000000000000000000000000000000000000008152600401611590906129d0565b60405180910390fd5b6001600360008473ffffffffffffffffffffffffffffffffffffffff1673ffffffffffffffffffffffffffffffffffffffff16815260200190815260200160002060008282540192505081905550816002600083815260200190815260200160002060006101000a81548173ffffffffffffffffffffffffffffffffffffffff021916908373ffffffffffffffffffffffffffffffffffffffff160217905550808273ffffffffffffffffffffffffffffffffffffffff16600073ffffffffffffffffffffffffffffffffffffffff167fddf252ad1be2c89b69c2b068fc378daa952ba7f163c4a11628f55a4df523b3ef60405160405180910390a46116a36000838360016117fc565b5050565b6116b0826117b5565b6116ef576040517f08c379a00000000000000000000000000000000000000000000000000000000081526004016116e690612a62565b60405180910390fd5b8060066000848152602001908152602001600020908161170f9190612c2e565b507ff8e1a15aba9398e019f0b49df1a4fde98ee17ae345cb5f6b5e2c27f5033e8ce78260405161173f9190611f08565b60405180910390a15050565b60007f01ffc9a7000000000000000000000000000000000000000000000000000000007bffffffffffffffffffffffffffffffffffffffffffffffffffffffff1916827bffffffffffffffffffffffffffffffffffffffffffffffffffffffff1916149050919050565b60008073ffffffffffffffffffffffffffffffffffffffff166117d78361109e565b73ffffffffffffffffffffffffffffffffffffffff1614159050919050565b50505050565b50505050565b60006118238473ffffffffffffffffffffffffffffffffffffffff16611a57565b1561197c578373ffffffffffffffffffffffffffffffffffffffff1663150b7a0261184c610c4f565b8786866040518563ffffffff1660e01b815260040161186e9493929190612d55565b6020604051808303816000875af19250505080156118aa57506040513d601f19601f820116820180604052508101906118a79190612db6565b60015b61192c573d80600081146118da576040519150601f19603f3d011682016040523d82523d6000602084013e6118df565b606091505b506000815103611924576040517f08c379a000000000000000000000000000000000000000000000000000000000815260040161191b906128f8565b60405180910390fd5b805181602001fd5b63150b7a0260e01b7bffffffffffffffffffffffffffffffffffffffffffffffffffffffff1916817bffffffffffffffffffffffffffffffffffffffffffffffffffffffff191614915050611981565b600190505b949350505050565b60606000600161199884611a7a565b01905060008167ffffffffffffffff8111156119b7576119b6611f99565b5b6040519080825280601f01601f1916602001820160405280156119e95781602001600182028036833780820191505090505b509050600082602001820190505b600115611a4c578080600190039150507f3031323334353637383961626364656600000000000000000000000000000000600a86061a8153600a8581611a4057611a3f612de3565b5b049450600085036119f7575b819350505050919050565b6000808273ffffffffffffffffffffffffffffffffffffffff163b119050919050565b600080600090507a184f03e93ff9f4daa797ed6e38ed64bf6a1f0100000000000000008310611ad8577a184f03e93ff9f4daa797ed6e38ed64bf6a1f0100000000000000008381611ace57611acd612de3565b5b0492506040810190505b6d04ee2d6d415b85acef81000000008310611b15576d04ee2d6d415b85acef81000000008381611b0b57611b0a612de3565b5b0492506020810190505b662386f26fc100008310611b4457662386f26fc100008381611b3a57611b39612de3565b5b0492506010810190505b6305f5e1008310611b6d576305f5e1008381611b6357611b62612de3565b5b0492506008810190505b6127108310611b92576127108381611b8857611b87612de3565b5b0492506004810190505b60648310611bb55760648381611bab57611baa612de3565b5b0492506002810190505b600a8310611bc4576001810190505b80915050919050565b6000604051905090565b600080fd5b600080fd5b60007fffffffff0000000000000000000000000000000000000000000000000000000082169050919050565b611c1681611be1565b8114611c2157600080fd5b50565b600081359050611c3381611c0d565b92915050565b600060208284031215611c4f57611c4e611bd7565b5b6000611c5d84828501611c24565b91505092915050565b60008115159050919050565b611c7b81611c66565b82525050565b6000602082019050611c966000830184611c72565b92915050565b600081519050919050565b600082825260208201905092915050565b60005b83811015611cd6578082015181840152602081019050611cbb565b60008484015250505050565b6000601f19601f8301169050919050565b6000611cfe82611c9c565b611d088185611ca7565b9350611d18818560208601611cb8565b611d2181611ce2565b840191505092915050565b60006020820190508181036000830152611d468184611cf3565b905092915050565b6000819050919050565b611d6181611d4e565b8114611d6c57600080fd5b50565b600081359050611d7e81611d58565b92915050565b600060208284031215611d9a57611d99611bd7565b5b6000611da884828501611d6f565b91505092915050565b600073ffffffffffffffffffffffffffffffffffffffff82169050919050565b6000611ddc82611db1565b9050919050565b611dec81611dd1565b82525050565b6000602082019050611e076000830184611de3565b92915050565b611e1681611dd1565b8114611e2157600080fd5b50565b600081359050611e3381611e0d565b92915050565b60008060408385031215611e5057611e4f611bd7565b5b6000611e5e85828601611e24565b9250506020611e6f85828601611d6f565b9150509250929050565b600080600060608486031215611e9257611e91611bd7565b5b6000611ea086828701611e24565b9350506020611eb186828701611e24565b9250506040611ec286828701611d6f565b9150509250925092565b600060208284031215611ee257611ee1611bd7565b5b6000611ef084828501611e24565b91505092915050565b611f0281611d4e565b82525050565b6000602082019050611f1d6000830184611ef9565b92915050565b611f2c81611c66565b8114611f3757600080fd5b50565b600081359050611f4981611f23565b92915050565b60008060408385031215611f6657611f65611bd7565b5b6000611f7485828601611e24565b9250506020611f8585828601611f3a565b9150509250929050565b600080fd5b600080fd5b7f4e487b7100000000000000000000000000000000000000000000000000000000600052604160045260246000fd5b611fd182611ce2565b810181811067ffffffffffffffff82111715611ff057611fef611f99565b5b80604052505050565b6000612003611bcd565b905061200f8282611fc8565b919050565b600067ffffffffffffffff82111561202f5761202e611f99565b5b61203882611ce2565b9050602081019050919050565b82818337600083830152505050565b600061206761206284612014565b611ff9565b90508281526020810184848401111561208357612082611f94565b5b61208e848285612045565b509392505050565b600082601f8301126120ab576120aa611f8f565b5b81356120bb848260208601612054565b91505092915050565b600080600080608085870312156120de576120dd611bd7565b5b60006120ec87828801611e24565b94505060206120fd87828801611e24565b935050604061210e87828801611d6f565b925050606085013567ffffffffffffffff81111561212f5761212e611bdc565b5b61213b87828801612096565b91505092959194509250565b600067ffffffffffffffff82111561216257612161611f99565b5b61216b82611ce2565b9050602081019050919050565b600061218b61218684612147565b611ff9565b9050828152602081018484840111156121a7576121a6611f94565b5b6121b2848285612045565b509392505050565b600082601f8301126121cf576121ce611f8f565b5b81356121df848260208601612178565b91505092915050565b600080604083850312156121ff576121fe611bd7565b5b600061220d85828601611e24565b925050602083013567ffffffffffffffff81111561222e5761222d611bdc565b5b61223a858286016121ba565b9150509250929050565b6000806040838503121561225b5761225a611bd7565b5b600061226985828601611e24565b925050602061227a85828601611e24565b9150509250929050565b7f4e487b7100000000000000000000000000000000000000000000000000000000600052602260045260246000fd5b600060028204905060018216806122cb57607f821691505b6020821081036122de576122dd612284565b5b50919050565b7f4552433732313a20617070726f76616c20746f2063757272656e74206f776e6560008201527f7200000000000000000000000000000000000000000000000000000000000000602082015250565b6000612340602183611ca7565b915061234b826122e4565b604082019050919050565b6000602082019050818103600083015261236f81612333565b9050919050565b7f4552433732313a20617070726f76652063616c6c6572206973206e6f7420746f60008201527f6b656e206f776e6572206f7220617070726f76656420666f7220616c6c000000602082015250565b60006123d2603d83611ca7565b91506123dd82612376565b604082019050919050565b60006020820190508181036000830152612401816123c5565b9050919050565b7f4552433732313a2063616c6c6572206973206e6f7420746f6b656e206f776e6560008201527f72206f7220617070726f76656400000000000000000000000000000000000000602082015250565b6000612464602d83611ca7565b915061246f82612408565b604082019050919050565b6000602082019050818103600083015261249381612457565b9050919050565b7f4552433732313a20696e76616c696420746f6b656e2049440000000000000000600082015250565b60006124d0601883611ca7565b91506124db8261249a565b602082019050919050565b600060208201905081810360008301526124ff816124c3565b9050919050565b7f4552433732313a2061646472657373207a65726f206973206e6f74206120766160008201527f6c6964206f776e65720000000000000000000000000000000000000000000000602082015250565b6000612562602983611ca7565b915061256d82612506565b604082019050919050565b6000602082019050818103600083015261259181612555565b9050919050565b600081905092915050565b60006125ae82611c9c565b6125b88185612598565b93506125c8818560208601611cb8565b80840191505092915050565b60006125e082856125a3565b91506125ec82846125a3565b91508190509392505050565b7f4f776e61626c653a206e6577206f776e657220697320746865207a65726f206160008201527f6464726573730000000000000000000000000000000000000000000000000000602082015250565b6000612654602683611ca7565b915061265f826125f8565b604082019050919050565b6000602082019050818103600083015261268381612647565b9050919050565b7f4552433732313a207472616e736665722066726f6d20696e636f72726563742060008201527f6f776e6572000000000000000000000000000000000000000000000000000000602082015250565b60006126e6602583611ca7565b91506126f18261268a565b604082019050919050565b60006020820190508181036000830152612715816126d9565b9050919050565b7f4552433732313a207472616e7366657220746f20746865207a65726f2061646460008201527f7265737300000000000000000000000000000000000000000000000000000000602082015250565b6000612778602483611ca7565b91506127838261271c565b604082019050919050565b600060208201905081810360008301526127a78161276b565b9050919050565b7f4f776e61626c653a2063616c6c6572206973206e6f7420746865206f776e6572600082015250565b60006127e4602083611ca7565b91506127ef826127ae565b602082019050919050565b60006020820190508181036000830152612813816127d7565b9050919050565b7f4552433732313a20617070726f766520746f2063616c6c657200000000000000600082015250565b6000612850601983611ca7565b915061285b8261281a565b602082019050919050565b6000602082019050818103600083015261287f81612843565b9050919050565b7f4552433732313a207472616e7366657220746f206e6f6e20455243373231526560008201527f63656976657220696d706c656d656e7465720000000000000000000000000000602082015250565b60006128e2603283611ca7565b91506128ed82612886565b604082019050919050565b60006020820190508181036000830152612911816128d5565b9050919050565b7f4552433732313a206d696e7420746f20746865207a65726f2061646472657373600082015250565b600061294e602083611ca7565b915061295982612918565b602082019050919050565b6000602082019050818103600083015261297d81612941565b9050919050565b7f4552433732313a20746f6b656e20616c7265616479206d696e74656400000000600082015250565b60006129ba601c83611ca7565b91506129c582612984565b602082019050919050565b600060208201905081810360008301526129e9816129ad565b9050919050565b7f45524337323155524953746f726167653a2055524920736574206f66206e6f6e60008201527f6578697374656e7420746f6b656e000000000000000000000000000000000000602082015250565b6000612a4c602e83611ca7565b9150612a57826129f0565b604082019050919050565b60006020820190508181036000830152612a7b81612a3f565b9050919050565b60008190508160005260206000209050919050565b60006020601f8301049050919050565b600082821b905092915050565b600060088302612ae47fffffffffffffffffffffffffffffffffffffffffffffffffffffffffffffffff82612aa7565b612aee8683612aa7565b95508019841693508086168417925050509392505050565b6000819050919050565b6000612b2b612b26612b2184611d4e565b612b06565b611d4e565b9050919050565b6000819050919050565b612b4583612b10565b612b59612b5182612b32565b848454612ab4565b825550505050565b600090565b612b6e612b61565b612b79818484612b3c565b505050565b5b81811015612b9d57612b92600082612b66565b600181019050612b7f565b5050565b601f821115612be257612bb381612a82565b612bbc84612a97565b81016020851015612bcb578190505b612bdf612bd785612a97565b830182612b7e565b50505b505050565b600082821c905092915050565b6000612c0560001984600802612be7565b1980831691505092915050565b6000612c1e8383612bf4565b9150826002028217905092915050565b612c3782611c9c565b67ffffffffffffffff811115612c5057612c4f611f99565b5b612c5a82546122b3565b612c65828285612ba1565b600060209050601f831160018114612c985760008415612c86578287015190505b612c908582612c12565b865550612cf8565b601f198416612ca686612a82565b60005b82811015612cce57848901518255600182019150602085019450602081019050612ca9565b86831015612ceb5784890151612ce7601f891682612bf4565b8355505b6001600288020188555050505b505050505050565b600081519050919050565b600082825260208201905092915050565b6000612d2782612d00565b612d318185612d0b565b9350612d41818560208601611cb8565b612d4a81611ce2565b840191505092915050565b6000608082019050612d6a6000830187611de3565b612d776020830186611de3565b612d846040830185611ef9565b8181036060830152612d968184612d1c565b905095945050505050565b600081519050612db081611c0d565b92915050565b600060208284031215612dcc57612dcb611bd7565b5b6000612dda84828501612da1565b91505092915050565b7f4e487b7100000000000000000000000000000000000000000000000000000000600052601260045260246000fdfea264697066735822122055f811c414dd02f047ed2ce646f0032fdbaf52e79b517e2546d13235db15755f64736f6c63430008110033",
  "linkReferences": {},
  "deployedLinkReferences": {}
}